AFLY06049
HFDTE151017
HFFXA100
HFPLTPILOT:HLBALLON          
HFGTYGLIDERTYPE:Fire24/4250       
HFGIDGLIDERID:HB-QND            
HFDTM100GPSDATUM:WGS84
HFGPSGPS:FASTRAX IT321
HFRFWFIRMWAREVERSION:2.06
HFRHWHARDWAREVERSION:1.00
HFFTYFRTYPE:FLYTEC,6040
I033638OAT3941WSP4244TRT
B0727564626091N00751827EA0161201801060000000
B0727584626091N00751827EA0161201801060000000
B0728004626091N00751827EA0161201801060000000
B0728024626091N00751827EA0161201801060000000
B0728044626091N00751827EA0161201801060000000
B0728064626091N00751827EA0161201801061000000
B0728084626091N00751827EA0161201801061000000
B0728104626091N00751827EA0161301801061000000
B0728124626091N00751827EA0161301801061000000
B0728144626091N00751827EA0161401801063000000
B0728164626091N00751827EA0161501801063000000
B0728184626090N00751826EA0161501799063001000
B0728204626088N00751823EA0161601797063004234
B0728224626086N00751819EA0161701795063002232
B0728244626085N00751817EA0161901795063001000
B0728264626083N00751814EA0162001795064005230
B0728284626081N00751810EA0162101795064006232
B0728304626080N00751807EA0162301795064005232
B0728324626078N00751804EA0162401797065005230
B0728344626076N00751801EA0162601799065006232
B0728364626075N00751797EA0162701801066007234
B0728384626074N00751794EA0162901804066006236
B0728404626073N00751791EA0163001806066006236
B0728424626071N00751788EA0163201807066007240
B0728444626070N00751784EA0163301809066007240
B0728464626069N00751781EA0163501809066007242
B0728484626067N00751778EA0163601810067007240
B0728504626066N00751774EA0163701809067009242
B0728524626065N00751769EA0163901809068008242
B0728544626064N00751766EA0164101809068007242
B0728564626062N00751763EA0164201809068007240
B0728584626061N00751759EA0164401810068008242
B0729004626060N00751755EA0164601811070009242
B0729024626059N00751751EA0164901812070007248
B0729044626058N00751748EA0165101813070007248
B0729064626057N00751744EA0165401814070009250
B0729084626056N00751740EA0165601816070009250
B0729104626056N00751736EA0165901819072008258
B0729124626056N00751733EA0166201822072007258
B0729144626056N00751729EA0166501825074007262
B0729164626056N00751726EA0166901828074008266
B0729184626055N00751722EA0167201831074008266
B0729204626055N00751719EA0167601835074007266
B0729224626055N00751715EA0167901838075008264
B0729244626055N00751711EA0168301843075008266
B0729264626055N00751708EA0168701847076007266
B0729284626054N00751705EA0169101851076007264
B0729304626053N00751702EA0169501856077008262
B0729324626053N00751699EA0169901860077008256
B0729344626052N00751696EA0170301865078007254
B0729364626051N00751693EA0170701869078007252
B0729384626050N00751690EA0171101874078008248
B0729404626049N00751686EA0171501878079008246
B0729424626048N00751684EA0171901882079007244
B0729444626047N00751681EA0172301887079007242
B0729464626046N00751678EA0172601891079007240
B0729484626045N00751675EA0173001895079007240
B0729504626044N00751673EA0173301899079006238
B0729524626042N00751671EA0173601902079006236
B0729544626041N00751668EA0173901906079007236
B0729564626040N00751666EA0174201910079007236
B0729584626039N00751663EA0174501913079006236
B0730004626038N00751661EA0174701916079006234
B0730024626036N00751659EA0175001919079007236
B0730044626035N00751656EA0175301922082007236
B0730064626034N00751653EA0175601926082006236
B0730084626033N00751651EA0175901929082006234
B0730104626032N00751649EA0176301932083007236
B0730124626031N00751646EA0176601935083007236
B0730144626030N00751644EA0176901939083006234
B0730164626028N00751642EA0177301942083006234
B0730184626027N00751639EA0177601946084006236
B0730204626026N00751636EA0177901949084006236
B0730224626025N00751634EA0178301952084005236
B0730244626024N00751632EA0178601956084005236
B0730264626023N00751630EA0178901959084005236
B0730284626023N00751628EA0179201962084005240
B0730304626022N00751626EA0179501966083004240
B0730324626021N00751624EA0179801969083004240
B0730344626020N00751622EA0180101972083005238
B0730364626019N00751620EA0180401975083004238
B0730384626019N00751618EA0180701978083004238
B0730404626018N00751617EA0181001979083001000
B0730424626018N00751617EA0181301979083000000
B0730444626018N00751617EA0181601979083000000
B0730464626018N00751617EA0181901979083000000
B0730484626018N00751617EA0182201979083000000
B0730504626018N00751617EA0182601979083000000
B0730524626018N00751617EA0182901979083000000
B0730544626018N00751617EA0183301979083000000
B0730564626018N00751617EA0183701979084000000
B0730584626018N00751617EA0184001979084000000
B0731004626018N00751617EA0184401979085000000
B0731024626018N00751617EA0184701979085000000
B0731044626018N00751617EA0185101979085000000
B0731064626018N00751617EA0185501979085000000
B0731084626018N00751617EA0185901979085000000
B0731104626018N00751617EA0186301979085000000
B0731124626018N00751617EA0186701979085000000
B0731144626018N00751617EA0187101979085000000
B0731164626018N00751617EA0187601979085000000
B0731184626018N00751617EA0188001979085000000
B0731204626018N00751617EA0188401979085000000
B0731224626018N00751617EA0188801979089000000
B0731244626018N00751617EA0189301979089000000
B0731264626018N00751617EA0189701979089000000
B0731284626018N00751617EA0190201979089000000
B0731304626018N00751617EA0190601979088000000
B0731324626018N00751617EA0191101979088000000
B0731344626018N00751617EA0191601979089000000
B0731364626018N00751617EA0192101979089000000
B0731384626018N00751617EA0192601979089000000
B0731404626018N00751617EA0193201979089000000
B0731424626018N00751617EA0193701979089000000
B0731444626018N00751617EA0194301979089000000
B0731464626018N00751617EA0194801979089000000
B0731484626018N00751617EA0195401979092000000
B0731504626018N00751617EA0195901979092000000
B0731524626018N00751617EA0196501979092000000
B0731544626018N00751617EA0197001979092000000
B0731564626018N00751617EA0197501979092000000
B0731584626015N00751617EA0198002011092003238
B0732004626010N00751616EA0198402039092005186
B0732024626006N00751615EA0198802062092005186
B0732044626002N00751614EA0199102083091005188
B0732064625998N00751613EA0199402100091005188
B0732084625995N00751612EA0199702115091005190
B0732104625992N00751610EA0199902128091004190
B0732124625990N00751609EA0200202140091004192
B0732144625988N00751608EA0200502150091004192
B0732164625986N00751607EA0200902158091004194
B0732184625984N00751606EA0201202166091004196
B0732204625982N00751605EA0201602174091004198
B0732224625980N00751603EA0202002180093004200
B0732244625978N00751602EA0202502187093004202
B0732264625977N00751601EA0203002193093004204
B0732284625976N00751599EA0203502200093004206
B0732304625974N00751597EA0204002206095005210
B0732324625973N00751596EA0204502213095005214
B0732344625972N00751594EA0205102219095005218
B0732364625971N00751592EA0205602225095005224
B0732384625969N00751589EA0206202232094006226
B0732404625968N00751587EA0206702238094006230
B0732424625967N00751585EA0207202244094007232
B0732444625966N00751582EA0207702251094007234
B0732464625964N00751579EA0208202257094007236
B0732484625963N00751576EA0208602263094007238
B0732504625962N00751573EA0209002268094008240
B0732524625961N00751569EA0209402274093008242
B0732544625960N00751566EA0209802279093008246
B0732564625959N00751562EA0210202284093008246
B0732584625958N00751558EA0210602289093009248
B0733004625957N00751554EA0211002294093009250
B0733024625956N00751550EA0211502298093009252
B0733044625955N00751546EA0211902303093009250
B0733064625954N00751542EA0212302308093009252
B0733084625954N00751538EA0212702313092009254
B0733104625953N00751534EA0213102317092009256
B0733124625952N00751529EA0213502322092009254
B0733144625951N00751525EA0213902326092009254
B0733164625950N00751521EA0214302331091009254
B0733184625950N00751517EA0214602335091008254
B0733204625949N00751513EA0215002339091008254
B0733224625948N00751510EA0215302343091008254
B0733244625947N00751506EA0215602346091008254
B0733264625947N00751503EA0215902349090007254
B0733284625946N00751499EA0216202352090007252
B0733304625945N00751496EA0216402355090007250
B0733324625944N00751493EA0216602357090007250
B0733344625943N00751490EA0216802359089007248
B0733364625942N00751487EA0217002361089007246
B0733384625941N00751484EA0217202363089006244
B0733404625940N00751482EA0217402364089006242
B0733424625939N00751479EA0217602366089006240
B0733444625938N00751477EA0217802368089006240
B0733464625936N00751475EA0218102369093006238
B0733484625935N00751472EA0218302371093006236
B0733504625934N00751470EA0218602373094005234
B0733524625933N00751468EA0218802375094005232
B0733544625932N00751467EA0219102378094005232
B0733564625931N00751465EA0219302380094005230
B0733584625929N00751463EA0219602383094005228
B0734004625928N00751462EA0219902386093005228
B0734024625927N00751460EA0220302389093005228
B0734044625926N00751458EA0220702392094005226
B0734064625925N00751457EA0221102396094005226
B0734084625924N00751455EA0221502400098005224
B0734104625922N00751453EA0222002404098005224
B0734124625921N00751451EA0222602409100006222
B0734144625920N00751450EA0223102414100006222
B0734164625918N00751448EA0223702420100006222
B0734184625917N00751446EA0224302426100006224
B0734204625916N00751443EA0224802432099007224
B0734224625914N00751441EA0225402438099007226
B0734244625913N00751439EA0226002444098007228
B0734264625911N00751436EA0226502450098007230
B0734284625910N00751433EA0227102456098008232
B0734304625908N00751430EA0227602462098008232
B0734324625907N00751427EA0228102467098008232
B0734344625905N00751424EA0228502473098009232
B0734364625903N00751421EA0228902478098009234
B0734384625902N00751417EA0229302482096009232
B0734404625900N00751414EA0229602487096009232
B0734424625898N00751411EA0230002491096009232
B0734444625896N00751407EA0230302494096009232
B0734464625895N00751404EA0230602498095009232
B0734484625893N00751401EA0231002502095008230
B0734504625891N00751398EA0231302504095008232
B0734524625889N00751395EA0231702508095008230
B0734544625888N00751392EA0232002511094008232
B0734564625886N00751389EA0232402515094008230
B0734584625884N00751386EA0232702519094008230
B0735004625883N00751383EA0233102523094008230
B0735024625881N00751381EA0233502527094007230
B0735044625880N00751378EA0233802530093007230
B0735064625878N00751376EA0234202534093006230
B0735084625877N00751373EA0234602538093006232
B0735104625876N00751371EA0235102543093006232
B0735124625875N00751368EA0235502547092006232
B0735144625874N00751366EA0235902552092006234
B0735164625873N00751364EA0236402557094006234
B0735184625872N00751361EA0236902562094006236
B0735204625870N00751359EA0237402567095006236
B0735224625869N00751356EA0238002572095006238
B0735244625868N00751354EA0238502577095007238
B0735264625867N00751351EA0239002583095007240
B0735284625866N00751348EA0239502588097007242
B0735304625865N00751345EA0240102593097007242
B0735324625864N00751342EA0240602599097007242
B0735344625863N00751339EA0241102604096007242
B0735364625862N00751336EA0241602609096007242
B0735384625861N00751333EA0242102614096007244
B0735404625860N00751331EA0242602619096006242
B0735424625859N00751328EA0243102623095006242
B0735444625858N00751325EA0243602629095006244
B0735464625858N00751323EA0244102634095006244
B0735484625857N00751320EA0244602640095006244
B0735504625856N00751318EA0245102645095006244
B0735524625855N00751315EA0245602650095006244
B0735544625854N00751313EA0246102655094005244
B0735564625853N00751311EA0246502660094005242
B0735584625853N00751308EA0247002665094005242
B0736004625852N00751306EA0247402670094005242
B0736024625851N00751304EA0247802674094005244
B0736044625851N00751302EA0248102678093005246
B0736064625850N00751300EA0248502682093005248
B0736084625850N00751297EA0248802686093004248
B0736104625850N00751295EA0249202690093004252
B0736124625850N00751293EA0249502693092004254
B0736144625850N00751291EA0249902697092004256
B0736164625850N00751289EA0250302701094004260
B0736184625850N00751288EA0250602705094004264
B0736204625851N00751286EA0251002709095004270
B0736224625851N00751284EA0251402713095004274
B0736244625852N00751282EA0251702717095004282
B0736264625852N00751280EA0252102721095004286
B0736284625853N00751279EA0252402724094004288
B0736304625854N00751277EA0252702728094004292
B0736324625854N00751275EA0253002731094004296
B0736344625855N00751274EA0253302735094004300
B0736364625856N00751272EA0253702738094004304
B0736384625857N00751271EA0254002742094004306
B0736404625858N00751270EA0254402745094004308
B0736424625859N00751269EA0254802749097004310
B0736444625860N00751267EA0255202754097004314
B0736464625861N00751266EA0255602758099004316
B0736484625862N00751265EA0256102763099004318
B0736504625863N00751264EA0256602769101004320
B0736524625864N00751263EA0257202774101002322
B0736544625865N00751263EA0257702774101000000
B0736564625865N00751263EA0258302774101000000
B0736584625865N00751263EA0258902774102000000
B0737004625865N00751263EA0259502774102000000
B0737024625865N00751263EA0260102774101000000
B0737044625865N00751263EA0260602774101000000
B0737064625865N00751263EA0261102774101000000
B0737084625865N00751263EA0261502774101000000
B0737104625865N00751263EA0261902774101000000
B0737124625865N00751263EA0262202774100000000
B0737144625865N00751263EA0262502774100000000
B0737164625865N00751263EA0262902774100000000
B0737184625865N00751263EA0263202774100000000
B0737204625865N00751263EA0263502774100000000
B0737224625865N00751263EA0263902774100000000
B0737244625865N00751263EA0264302774100000000
B0737264625865N00751263EA0264702774100000000
B0737284625865N00751263EA0265102774099000000
B0737304625865N00751263EA0265602774099000000
B0737324625865N00751263EA0266002774099000000
B0737344625865N00751263EA0266402774099000000
B0737364625865N00751263EA0266802774099000000
B0737384625865N00751263EA0267302774099000000
B0737404625865N00751263EA0267702774099000000
B0737424625865N00751263EA0268102774098000000
B0737444625865N00751263EA0268502774098000000
B0737464625860N00751240EA0269002895097002316
B0737484625858N00751228EA0269402900097003252
B0737504625857N00751227EA0269902904097004252
B0737524625857N00751225EA0270302909097003252
B0737544625857N00751223EA0270702914097003254
B0737564625857N00751222EA0271102918097003254
B0737584625856N00751220EA0271502922096003254
B0738004625856N00751218EA0271902927096003254
B0738024625856N00751217EA0272302931096003254
B0738044625856N00751215EA0272702935096003254
B0738064625855N00751214EA0273102939095003254
B0738084625855N00751213EA0273502943095003256
B0738104625855N00751212EA0273902948095002256
B0738124625854N00751210EA0274302952096003254
B0738144625853N00751209EA0274702956096003252
B0738164625853N00751208EA0275102961096002250
B0738184625852N00751207EA0275502965096003248
B0738204625852N00751207EA0275902969095003242
B0738224625851N00751206EA0276302973095002238
B0738244625850N00751205EA0276602977095002236
B0738264625849N00751205EA0277002981095002234
B0738284625848N00751205EA0277302985094003224
B0738304625847N00751205EA0277602989094002216
B0738324625846N00751205EA0277902992094002212
B0738344625845N00751205EA0278202995094003202
B0738364625844N00751206EA0278502999094003192
B0738384625844N00751206EA0278803002094003186
B0738404625843N00751207EA0279103005094002186
B0738424625842N00751208EA0279403007094003176
B0738444625841N00751208EA0279603009094001000
B0738464625841N00751208EA0279903009093000000
B0738484625841N00751208EA0280103009093000000
B0738504625841N00751208EA0280403009092000000
B0738524625841N00751208EA0280603009092000000
B0738544625841N00751208EA0280803009092000000
B0738564625841N00751208EA0281003009092000000
B0738584625841N00751208EA0281203009092000000
B0739004625841N00751208EA0281403009092000000
B0739024625841N00751208EA0281703009091000000
B0739044625841N00751208EA0282003009091000000
B0739064625841N00751208EA0282203009092000000
B0739084625841N00751208EA0282503009092000000
B0739104625841N00751208EA0282803009093000000
B0739124625841N00751208EA0283203009093000000
B0739144625841N00751208EA0283603009093000000
B0739164625841N00751208EA0283903009093000000
B0739184625841N00751208EA0284403009093000000
B0739204625841N00751208EA0284803009093000000
B0739224625841N00751208EA0285203009093000000
B0739244625841N00751208EA0285603009094000000
B0739264625841N00751208EA0286103009094000000
B0739284625841N00751211EA0286503023093003192
B0739304625842N00751216EA0286903035093004080
B0739324625842N00751221EA0287203046093005080
B0739344625843N00751226EA0287503056093005078
B0739364625844N00751230EA0287903065093005078
B0739384625845N00751233EA0288203072093006076
B0739404625846N00751237EA0288503079093006072
B0739424625847N00751240EA0288703085093006068
B0739444625849N00751243EA0289003091092006064
B0739464625850N00751246EA0289203095092006062
B0739484625851N00751249EA0289403100092006060
B0739504625852N00751252EA0289603103092006060
B0739524625853N00751255EA0289803107092006058
B0739544625854N00751258EA0290003110091006060
B0739564625855N00751261EA0290203113091006060
B0739584625856N00751263EA0290403115091006062
B0740004625857N00751266EA0290603118091006062
B0740024625858N00751269EA0290803120090006064
B0740044625858N00751272EA0291003122090006068
B0740064625859N00751275EA0291303125090006070
B0740084625859N00751278EA0291503127090007072
B0740104625860N00751281EA0291803130090007074
B0740124625861N00751285EA0292203133090007074
B0740144625861N00751288EA0292503136092007074
B0740164625862N00751291EA0292803139092007072
B0740184625863N00751294EA0293103142092007072
B0740204625863N00751297EA0293503145092007072
B0740224625864N00751301EA0293803149092008072
B0740244625865N00751304EA0294103152091008070
B0740264625866N00751308EA0294403155091008070
B0740284625867N00751311EA0294703159091008070
B0740304625868N00751315EA0295003162091009070
B0740324625868N00751319EA0295303165090009070
B0740344625869N00751323EA0295503168090009070
B0740364625870N00751327EA0295803170090009070
B0740384625871N00751331EA0296003173090009070
B0740404625872N00751335EA0296203175090009070
B0740424625873N00751339EA0296403178090009070
B0740444625874N00751343EA0296603180089009070
B0740464625875N00751346EA0296903182089009068
B0740484625876N00751350EA0297103184089009068
B0740504625877N00751354EA0297303186089009068
B0740524625878N00751358EA0297503188089009068
B0740544625879N00751362EA0297703190089009068
B0740564625880N00751366EA0297903193089009066
B0740584625881N00751369EA0298103194089009066
B0741004625882N00751373EA0298203196089008066
B0741024625884N00751377EA0298403198089009066
B0741044625885N00751380EA0298603200089009066
B0741064625886N00751384EA0298703202089009064
B0741084625887N00751387EA0298903204089008064
B0741104625888N00751391EA0299103205088008064
B0741124625889N00751394EA0299203207088008064
B0741144625891N00751398EA0299403209087008062
B0741164625892N00751401EA0299503211087008062
B0741184625893N00751404EA0299703212087008062
B0741204625894N00751408EA0299803214087008062
B0741224625895N00751411EA0300003216087008062
B0741244625897N00751414EA0300203217087008062
B0741264625898N00751418EA0300403219087008062
B0741284625899N00751421EA0300603221088008060
B0741304625900N00751424EA0300803223088008060
B0741324625902N00751427EA0301003226088008060
B0741344625903N00751431EA0301303228088008060
B0741364625904N00751434EA0301503230087008058
B0741384625905N00751437EA0301703233087008058
B0741404625907N00751440EA0302003235087008058
B0741424625908N00751443EA0302203237087008058
B0741444625909N00751446EA0302403240086008058
B0741464625911N00751449EA0302603242086008056
B0741484625912N00751452EA0302803244086007056
B0741504625913N00751455EA0303003246086007056
B0741524625915N00751458EA0303203248086008056
B0741544625916N00751460EA0303303250086007056
B0741564625917N00751463EA0303503252086007054
B0741584625919N00751466EA0303603254085007054
B0742004625920N00751469EA0303803255085007054
B0742024625921N00751471EA0303903257085007054
B0742044625923N00751474EA0304003258085007052
B0742064625924N00751477EA0304203260084007052
B0742084625925N00751479EA0304303261084007052
B0742104625927N00751482EA0304503262084007052
B0742124625928N00751484EA0304703264084007050
B0742144625930N00751487EA0304903266085007050
B0742164625931N00751489EA0305103268085007050
B0742184625933N00751492EA0305303270085007048
B0742204625934N00751494EA0305503271085007048
B0742224625936N00751496EA0305703274085007046
B0742244625937N00751499EA0305903276085007044
B0742264625939N00751501EA0306103278085007044
B0742284625940N00751503EA0306303280085007044
B0742304625942N00751505EA0306503282085007044
B0742324625944N00751508EA0306803284084007042
B0742344625945N00751510EA0307103287084007042
B0742364625947N00751512EA0307403290084007042
B0742384625949N00751514EA0307703293084007042
B0742404625950N00751517EA0308003296086007042
B0742424625952N00751519EA0308303299086007040
B0742444625954N00751521EA0308703303086007040
B0742464625956N00751523EA0309003306086007040
B0742484625957N00751525EA0309403310086007040
B0742504625959N00751528EA0309703314086007040
B0742524625961N00751530EA0310003317086007038
B0742544625963N00751532EA0310403321086008038
B0742564625965N00751535EA0310703324086008038
B0742584625967N00751537EA0311003328086008038
B0743004625969N00751539EA0311303331086008038
B0743024625971N00751542EA0311603334085008038
B0743044625973N00751544EA0311803337085008038
B0743064625975N00751546EA0312103340085008038
B0743084625977N00751549EA0312403343085008040
B0743104625979N00751552EA0312603346085008040
B0743124625981N00751554EA0312903348085008040
B0743144625982N00751557EA0313103351086008042
B0743164625984N00751560EA0313303354086008042
B0743184625986N00751562EA0313503356085008044
B0743204625988N00751565EA0313703358085009046
B0743224625990N00751568EA0313903360085009046
B0743244625992N00751571EA0314103362085009046
B0743264625993N00751574EA0314203364085009046
B0743284625995N00751577EA0314403365085009048
B0743304625997N00751580EA0314503367085009048
B0743324625999N00751584EA0314703368085009050
B0743344626001N00751587EA0314803369085009050
B0743364626002N00751590EA0314903370084009052
B0743384626004N00751593EA0315103371084009052
B0743404626006N00751597EA0315203372084009052
B0743424626007N00751600EA0315303374084009052
B0743444626009N00751603EA0315403374084009052
B0743464626011N00751607EA0315503375084009052
B0743484626013N00751610EA0315603376084009052
B0743504626015N00751613EA0315703377084009050
B0743524626016N00751617EA0315703378084009050
B0743544626018N00751620EA0315803378084009050
B0743564626020N00751623EA0315803379083009050
B0743584626022N00751626EA0315803379083009050
B0744004626024N00751630EA0315803380083009048
B0744024626026N00751633EA0315803380083009048
B0744044626028N00751636EA0315803380083009046
B0744064626030N00751639EA0315803380082009046
B0744084626031N00751642EA0315803380082009046
B0744104626033N00751645EA0315803380082009046
B0744124626035N00751647EA0315703379082009046
B0744144626037N00751650EA0315703379083009044
B0744164626039N00751653EA0315703379083009042
B0744184626041N00751655EA0315603379083008042
B0744204626043N00751658EA0315603379083008042
B0744224626045N00751661EA0315503378083008042
B0744244626047N00751663EA0315403378083008042
B0744264626049N00751666EA0315303377082008040
B0744284626051N00751668EA0315203376082008040
B0744304626053N00751671EA0315103375082008038
B0744324626055N00751673EA0314903374082008040
B0744344626057N00751675EA0314803372082008040
B0744364626059N00751678EA0314603371082008040
B0744384626061N00751680EA0314403369082008038
B0744404626063N00751683EA0314203367081008038
B0744424626065N00751685EA0314003365081008038
B0744444626067N00751687EA0313803363082008038
B0744464626069N00751690EA0313603361082008038
B0744484626071N00751692EA0313403358082008038
B0744504626073N00751694EA0313203356082008036
B0744524626075N00751696EA0313003354082008036
B0744544626077N00751698EA0312703351082008036
B0744564626079N00751701EA0312503349082008036
B0744584626081N00751703EA0312203346082008036
B0745004626083N00751705EA0311903343082008036
B0745024626085N00751707EA0311603340082008036
B0745044626087N00751709EA0311303337081007034
B0745064626088N00751711EA0311003333081007034
B0745084626090N00751712EA0310703330081007034
B0745104626092N00751714EA0310403327081007034
B0745124626094N00751716EA0310103324081007034
B0745144626096N00751718EA0309803320081007034
B0745164626097N00751720EA0309503317081007034
B0745184626099N00751722EA0309203314082007036
B0745204626101N00751724EA0308903310082007036
B0745224626103N00751726EA0308503307082006036
B0745244626104N00751728EA0308203304082007038
B0745264626106N00751730EA0307903300082007038
B0745284626107N00751732EA0307503297082007038
B0745304626109N00751734EA0307203293081007040
B0745324626111N00751736EA0306803290081007040
B0745344626112N00751738EA0306403286081007040
B0745364626114N00751740EA0306103282081007042
B0745384626115N00751743EA0305703278081006040
B0745404626117N00751745EA0305303274081007042
B0745424626118N00751747EA0305003271081006044
B0745444626120N00751749EA0304703267081006044
B0745464626121N00751751EA0304403263081006044
B0745484626122N00751753EA0304103261082006046
B0745504626124N00751755EA0303903258082006046
B0745524626125N00751758EA0303703256083006046
B0745544626126N00751760EA0303503254083006048
B0745564626127N00751762EA0303403252083006048
B0745584626129N00751764EA0303303251083006048
B0746004626130N00751767EA0303203251084006050
B0746024626131N00751769EA0303203250084006052
B0746044626132N00751771EA0303203250084006052
B0746064626133N00751774EA0303303251084006052
B0746084626135N00751776EA0303403251083006052
B0746104626136N00751778EA0303503252083006052
B0746124626137N00751780EA0303703254083006052
B0746144626138N00751783EA0303903256084006052
B0746164626139N00751785EA0304203259084006052
B0746184626140N00751787EA0304503262084006052
B0746204626142N00751790EA0304803265084006052
B0746224626143N00751792EA0305103268086006050
B0746244626144N00751794EA0305403272086006050
B0746264626146N00751797EA0305803275085006050
B0746284626147N00751799EA0306103279085006048
B0746304626149N00751801EA0306503283085006048
B0746324626150N00751803EA0306803287085006046
B0746344626152N00751805EA0307103290085007044
B0746364626153N00751808EA0307403294085007044
B0746384626155N00751810EA0307703297084007042
B0746404626156N00751812EA0308003300084006042
B0746424626158N00751814EA0308303304084007042
B0746444626160N00751816EA0308603307084007040
B0746464626161N00751818EA0308903310084007040
B0746484626163N00751820EA0309203314084007040
B0746504626165N00751822EA0309603317084007038
B0746524626166N00751824EA0309903321084007038
B0746544626168N00751826EA0310303324084007036
B0746564626170N00751828EA0310603328085007036
B0746584626172N00751830EA0310903332085008036
B0747004626174N00751832EA0311303335085008036
B0747024626176N00751834EA0311603339085008036
B0747044626178N00751836EA0311903342084008034
B0747064626180N00751839EA0312203346084008034
B0747084626183N00751841EA0312503349084009034
B0747104626185N00751843EA0312803352084009036
B0747124626187N00751846EA0313103355084009034
B0747144626189N00751848EA0313303358084009036
B0747164626192N00751851EA0313603361084009036
B0747184626194N00751854EA0313903364084009036
B0747204626196N00751856EA0314203367084009036
B0747224626199N00751859EA0314503370086010038
B0747244626202N00751863EA0314803373086010038
B0747264626205N00751866EA0315003376086010038
B0747284626207N00751869EA0315303379086010038
B0747304626209N00751871EA0315603382085010038
B0747324626212N00751874EA0315803384085010038
B0747344626213N00751876EA0316103387085009038
B0747364626215N00751878EA0316403390085009036
B0747384626218N00751881EA0316703393085009036
B0747404626220N00751884EA0317003396085009036
B0747424626222N00751886EA0317303399085009038
B0747444626224N00751889EA0317603403085009038
B0747464626227N00751892EA0317903406085009038
B0747484626229N00751894EA0318203409085009038
B0747504626231N00751897EA0318503412085009038
B0747524626234N00751900EA0318803415085010038
B0747544626237N00751904EA0319103419085010040
B0747564626240N00751907EA0319303422085010040
B0747584626242N00751910EA0319603424085010040
B0748004626245N00751914EA0319903427084011040
B0748024626247N00751917EA0320103430084011040
B0748044626250N00751920EA0320403433084011042
B0748064626252N00751924EA0320603435084011040
B0748084626255N00751927EA0320903438085011040
B0748104626258N00751930EA0321103441085012040
B0748124626261N00751934EA0321303443085012040
B0748144626264N00751937EA0321603446085012038
B0748164626266N00751941EA0321803448084012038
B0748184626269N00751944EA0322003450084012038
B0748204626272N00751948EA0322203452084012038
B0748224626275N00751952EA0322403454084012038
B0748244626278N00751955EA0322503456084012038
B0748264626281N00751959EA0322703458084012040
B0748284626284N00751962EA0322903459084012040
B0748304626287N00751966EA0323003460083012040
B0748324626290N00751970EA0323203462083012040
B0748344626293N00751973EA0323403463083012040
B0748364626296N00751977EA0323603465083012040
B0748384626299N00751981EA0323803467083012040
B0748404626302N00751984EA0323903468083013040
B0748424626304N00751988EA0324103470083013040
B0748444626308N00751992EA0324303472083013040
B0748464626310N00751995EA0324503474082013040
B0748484626314N00751999EA0324703476082013040
B0748504626317N00752003EA0325003479082013040
B0748524626320N00752007EA0325203481082013040
B0748544626323N00752011EA0325403484082013040
B0748564626326N00752014EA0325703486082013040
B0748584626329N00752018EA0326003489082013040
B0749004626332N00752022EA0326203492083013040
B0749024626335N00752026EA0326503495083013040
B0749044626338N00752030EA0326803498083014040
B0749064626341N00752034EA0327103501083014040
B0749084626345N00752038EA0327403504083014040
B0749104626348N00752042EA0327703507083014040
B0749124626351N00752046EA0328003510082014040
B0749144626354N00752050EA0328203513082014042
B0749164626358N00752055EA0328503515082014042
B0749184626361N00752059EA0328703518082014040
B0749204626364N00752063EA0328903520082015040
B0749224626368N00752067EA0329203523082015040
B0749244626371N00752072EA0329403525081015042
B0749264626374N00752076EA0329603527081015040
B0749284626378N00752081EA0329803529081015040
B0749304626381N00752085EA0329903531082015042
B0749324626385N00752090EA0330103533082015042
B0749344626388N00752094EA0330203534082015040
B0749364626392N00752099EA0330403536082015042
B0749384626395N00752104EA0330503537081016042
B0749404626399N00752108EA0330603538081015042
B0749424626402N00752113EA0330703539081015040
B0749444626406N00752118EA0330803540081015040
B0749464626409N00752122EA0330903541080015042
B0749484626413N00752127EA0331003542080015042
B0749504626416N00752131EA0331103543080015040
B0749524626420N00752136EA0331203543080015040
B0749544626423N00752140EA0331203543079015042
B0749564626427N00752145EA0331303544079015042
B0749584626430N00752150EA0331403545079015040
B0750004626434N00752154EA0331503546079015040
B0750024626438N00752159EA0331503547079015040
B0750044626441N00752163EA0331603548079015040
B0750064626445N00752168EA0331603548079015040
B0750084626448N00752172EA0331603549079015040
B0750104626452N00752176EA0331603549079015040
B0750124626455N00752181EA0331603549079015040
B0750144626459N00752185EA0331603549079015040
B0750164626462N00752190EA0331603549079015040
B0750184626466N00752194EA0331603548079015040
B0750204626469N00752198EA0331503547078015038
B0750224626473N00752202EA0331403547078015038
B0750244626476N00752207EA0331303546078015038
B0750264626480N00752211EA0331203545078015040
B0750284626483N00752215EA0331103545078015038
B0750304626487N00752219EA0331003543078015038
B0750324626491N00752224EA0330803542078015038
B0750344626494N00752228EA0330603541078015038
B0750364626498N00752232EA0330403539078015040
B0750384626501N00752236EA0330103537078015038
B0750404626505N00752241EA0329803534078015040
B0750424626508N00752245EA0329503531077015040
B0750444626511N00752249EA0329203528077015040
B0750464626515N00752253EA0328903524077014038
B0750484626518N00752258EA0328603521077014040
B0750504626521N00752262EA0328303518078014042
B0750524626525N00752266EA0328003514078014040
B0750544626528N00752270EA0327703511078014042
B0750564626531N00752274EA0327503508078014040
B0750584626535N00752279EA0327203506085014042
B0751004626538N00752283EA0327003503085013042
B0751024626540N00752287EA0326803500085013040
B0751044626544N00752291EA0326703498086013042
B0751064626547N00752295EA0326503496086013042
B0751084626550N00752298EA0326403494086013042
B0751104626553N00752302EA0326203492086013040
B0751124626556N00752306EA0326103491085013042
B0751144626559N00752310EA0326003490085013042
B0751164626562N00752314EA0325903488085013040
B0751184626565N00752318EA0325803487085013040
B0751204626568N00752321EA0325703486085013042
B0751224626571N00752325EA0325603485085013042
B0751244626574N00752329EA0325503485084013040
B0751264626577N00752333EA0325403484084013040
B0751284626580N00752337EA0325303483084013042
B0751304626583N00752341EA0325203482084013042
B0751324626586N00752344EA0325103481084012040
B0751344626589N00752348EA0325003480084012040
B0751364626592N00752352EA0324803479084013042
B0751384626595N00752356EA0324703478083012042
B0751404626598N00752359EA0324603476083012040
B0751424626601N00752363EA0324503475083012040
B0751444626603N00752367EA0324403474083012042
B0751464626606N00752371EA0324303473082012042
B0751484626609N00752374EA0324203472082012042
B0751504626612N00752378EA0324103471084012042
B0751524626615N00752382EA0324003470084012042
B0751544626617N00752386EA0323903469084012042
B0751564626620N00752389EA0323803468084012042
B0751584626623N00752393EA0323703467083012042
B0752004626626N00752397EA0323603467083012042
B0752024626629N00752400EA0323403466083012042
B0752044626631N00752404EA0323303465083012042
B0752064626634N00752407EA0323203464083012042
B0752084626637N00752411EA0323103463083012042
B0752104626640N00752415EA0323003462083012044
B0752124626642N00752418EA0322903461082012044
B0752144626645N00752422EA0322803460082012042
B0752164626648N00752426EA0322703459084012044
B0752184626650N00752429EA0322703458084011044
B0752204626653N00752433EA0322603457084012044
B0752224626655N00752437EA0322503456084011044
B0752244626658N00752440EA0322403456084011044
B0752264626660N00752444EA0322303455084011044
B0752284626663N00752448EA0322303454083011044
B0752304626666N00752451EA0322203453083011044
B0752324626668N00752455EA0322103452083011044
B0752344626671N00752458EA0322003452083011046
B0752364626673N00752462EA0321903451082011044
B0752384626676N00752466EA0321803450082011044
B0752404626678N00752469EA0321703449082011046
B0752424626680N00752473EA0321603448082011046
B0752444626683N00752477EA0321503447082011046
B0752464626685N00752481EA0321403446082011046
B0752484626688N00752484EA0321303445082011046
B0752504626690N00752488EA0321203444081011046
B0752524626693N00752491EA0321103443081011046
B0752544626695N00752495EA0321003442081011046
B0752564626697N00752499EA0320903441081011046
B0752584626699N00752502EA0320703440081011046
B0753004626702N00752506EA0320603439081011046
B0753024626704N00752509EA0320503437081011046
B0753044626706N00752513EA0320303436081011046
B0753064626709N00752516EA0320103434080011046
B0753084626711N00752520EA0319903432080011046
B0753104626713N00752523EA0319703430080010046
B0753124626715N00752526EA0319503428080010046
B0753144626717N00752530EA0319303426080010046
B0753164626720N00752533EA0319103423080010046
B0753184626722N00752537EA0318903421080010046
B0753204626724N00752540EA0318603419080010046
B0753224626726N00752543EA0318403416080010046
B0753244626728N00752546EA0318103414080010046
B0753264626730N00752550EA0317903411080009046
B0753284626732N00752553EA0317603409080009046
B0753304626733N00752554EA0317403406080009046
B0753324626735N00752558EA0317103404081009046
B0753344626737N00752561EA0316903401081009046
B0753364626739N00752564EA0316703399081009044
B0753384626741N00752567EA0316403396081009044
B0753404626743N00752570EA0316103394081009044
B0753424626745N00752573EA0315903391081009046
B0753444626747N00752576EA0315603389081009044
B0753464626749N00752579EA0315403386080009046
B0753484626751N00752582EA0315103383080009046
B0753504626753N00752585EA0314803380080009046
B0753524626755N00752588EA0314503377080009046
B0753544626757N00752590EA0314203374080009046
B0753564626758N00752593EA0313903371080008046
B0753584626760N00752596EA0313703368079008048
B0754004626762N00752599EA0313503365079008046
B0754024626764N00752602EA0313303363082008046
B0754044626765N00752605EA0313103361082008046
B0754064626767N00752607EA0312903359082008046
B0754084626769N00752610EA0312803358082008046
B0754104626771N00752613EA0312803357084008046
B0754124626772N00752616EA0312703356084007048
B0754144626774N00752618EA0312703356085007046
B0754164626776N00752621EA0312803357085007048
B0754184626777N00752624EA0312903357085007046
B0754204626779N00752626EA0313003359085007046
B0754224626780N00752629EA0313203361085007048
B0754244626782N00752631EA0313503363085007046
B0754264626784N00752634EA0313803365085007046
B0754284626785N00752637EA0314103368085007048
B0754304626787N00752639EA0314403371085008048
B0754324626788N00752642EA0314803375086008050
B0754344626790N00752645EA0315103378086008050
B0754364626792N00752648EA0315503382086008048
B0754384626794N00752651EA0315903387086009046
B0754404626796N00752654EA0316303391086009044
B0754424626798N00752657EA0316603395086009042
B0754444626800N00752660EA0317003399085009044
B0754464626802N00752663EA0317303403085010044
B0754484626805N00752668EA0317603406085010044
B0754504626808N00752671EA0317903409085010044
B0754524626810N00752674EA0318203412085010042
B0754544626812N00752677EA0318403415085010042
B0754564626814N00752680EA0318703418085010042
B0754584626817N00752683EA0318903421085010040
B0755004626819N00752686EA0319203424085010040
B0755024626821N00752689EA0319403427085010040
B0755044626824N00752692EA0319703429085010040
B0755064626826N00752694EA0320003432085010038
B0755084626828N00752697EA0320203435085010038
B0755104626831N00752700EA0320503438085010038
B0755124626832N00752701EA0320803441085009038
B0755144626834N00752704EA0321103444086009038
B0755164626837N00752707EA0321403447086009038
B0755184626839N00752709EA0321603449086009038
B0755204626841N00752712EA0321903452086009036
B0755224626844N00752715EA0322203455086009036
B0755244626846N00752717EA0322503458085009036
B0755264626848N00752719EA0322803461085009034
B0755284626851N00752722EA0323203464085009034
B0755304626853N00752724EA0323503468085009034
B0755324626855N00752727EA0323803471086009032
B0755344626858N00752729EA0324203475086010032
B0755364626862N00752732EA0324503479087010032
B0755384626865N00752735EA0324803482087010030
B0755404626868N00752737EA0325203486087011032
B0755424626870N00752740EA0325503489087011032
B0755444626873N00752742EA0325703493086011032
B0755464626876N00752745EA0326003496086011032
B0755484626879N00752748EA0326303499086012032
B0755504626882N00752751EA0326603501086012032
B0755524626885N00752754EA0326803504086012032
B0755544626889N00752756EA0327003507086012032
B0755564626892N00752759EA0327303509086012032
B0755584626895N00752763EA0327503512085012032
B0756004626898N00752766EA0327703514085012032
B0756024626902N00752769EA0327903516085013032
B0756044626905N00752772EA0328003517085013034
B0756064626908N00752775EA0328203519085013034
B0756084626912N00752778EA0328303521085013034
B0756104626915N00752782EA0328403522084013034
B0756124626918N00752785EA0328603523084013034
B0756144626922N00752788EA0328703524084013034
B0756164626925N00752792EA0328703525084013034
B0756184626928N00752795EA0328803526084013034
B0756204626931N00752798EA0328903526084013036
B0756224626934N00752802EA0328903527083013036
B0756244626938N00752805EA0328903527083013036
B0756264626941N00752809EA0328903527083013038
B0756284626944N00752812EA0328903527083013038
B0756304626947N00752816EA0328903527083013040
B0756324626950N00752820EA0328903526083012040
B0756344626953N00752823EA0328903526083012040
B0756364626956N00752827EA0328803525082012042
B0756384626959N00752831EA0328803525082012042
B0756404626961N00752834EA0328703524082012042
B0756424626964N00752838EA0328603524082012042
B0756444626967N00752842EA0328603523082012044
B0756464626969N00752846EA0328503522082012044
B0756484626972N00752849EA0328503522082012044
B0756504626974N00752853EA0328403521082012044
B0756524626977N00752857EA0328303520082011046
B0756544626979N00752861EA0328303520082011048
B0756564626982N00752865EA0328303519082011046
B0756584626984N00752869EA0328303519082012044
B0757004626987N00752872EA0328303519082011046
B0757024626989N00752876EA0328203518084011048
B0757044626991N00752880EA0328203518084011046
B0757064626994N00752884EA0328203518084012044
B0757084626996N00752888EA0328203518084011048
B0757104626999N00752892EA0328203518084011046
B0757124627001N00752895EA0328203518084012044
B0757144627004N00752899EA0328203517083011044
B0757164627006N00752903EA0328103517083011046
B0757184627009N00752906EA0328103517082011046
B0757204627011N00752910EA0328103516082011044
B0757224627014N00752914EA0328003516082011044
B0757244627016N00752917EA0327903515082011044
B0757264627019N00752921EA0327903515082011046
B0757284627021N00752925EA0327803514082011044
B0757304627023N00752928EA0327803514082011044
B0757324627026N00752932EA0327803513082011046
B0757344627028N00752935EA0327803513082011046
B0757364627030N00752939EA0327803513082011044
B0757384627033N00752942EA0327803512082011044
B0757404627035N00752946EA0327803512084011046
B0757424627038N00752949EA0327803513084011046
B0757444627040N00752953EA0327903513085011044
B0757464627043N00752956EA0327903513085011044
B0757484627045N00752960EA0328003514084011044
B0757504627048N00752964EA0328003514084011044
B0757524627050N00752967EA0328103515084011044
B0757544627053N00752971EA0328203516084011044
B0757564627055N00752974EA0328303517084011044
B0757584627058N00752978EA0328403518084011046
B0758004627060N00752981EA0328503519084011044
B0758024627063N00752985EA0328603520084011044
B0758044627065N00752989EA0328803522084011046
B0758064627068N00752992EA0328903523084011046
B0758084627070N00752996EA0329003524084012046
B0758104627072N00753000EA0329103526084012046
B0758124627075N00753004EA0329203527084012048
B0758144627077N00753009EA0329303528084012048
B0758164627080N00753013EA0329403530084013048
B0758184627083N00753017EA0329503531084013048
B0758204627086N00753022EA0329603532084013048
B0758224627088N00753026EA0329603533083014048
B0758244627091N00753031EA0329603533083014046
B0758264627094N00753036EA0329603533083014046
B0758284627097N00753040EA0329603533083014046
B0758304627101N00753045EA0329503533083015044
B0758324627104N00753049EA0329503533083015044
B0758344627107N00753054EA0329403532083015042
B0758364627110N00753059EA0329403532083015042
B0758384627114N00753063EA0329303531083015042
B0758404627117N00753068EA0329303531083015040
B0758424627120N00753072EA0329303531083015040
B0758444627124N00753076EA0329303530084015040
B0758464627128N00753081EA0329303530084015040
B0758484627131N00753085EA0329303530084015038
B0758504627135N00753089EA0329403531084015038
B0758524627138N00753093EA0329503531085015038
B0758544627142N00753097EA0329503532085015038
B0758564627146N00753102EA0329603533085015038
B0758584627149N00753106EA0329703534085015038
B0759004627153N00753110EA0329803535085015038
B0759024627157N00753114EA0329903536085015038
B0759044627160N00753118EA0330003537085015036
B0759064627164N00753122EA0330103538085015036
B0759084627168N00753126EA0330203539085015038
B0759104627171N00753130EA0330303540085015036
B0759124627175N00753134EA0330403541085015036
B0759144627179N00753138EA0330503542084015036
B0759164627182N00753142EA0330503543084015036
B0759184627186N00753146EA0330603544084014036
B0759204627190N00753150EA0330603545084014036
B0759224627193N00753154EA0330703546084014038
B0759244627197N00753158EA0330703546084014038
B0759264627200N00753162EA0330703547083014038
B0759284627203N00753166EA0330803547083014038
B0759304627207N00753170EA0330803547083014038
B0759324627210N00753174EA0330803548083014040
B0759344627213N00753178EA0330803548083014040
B0759364627216N00753181EA0330803548083013040
B0759384627220N00753185EA0330903548083013040
B0759404627223N00753189EA0330903548084013042
B0759424627226N00753193EA0331003549084013042
B0759444627229N00753197EA0331003549086013042
B0759464627232N00753201EA0331103550086013042
B0759484627235N00753205EA0331203550086013042
B0759504627238N00753209EA0331303551086013042
B0759524627241N00753213EA0331403552086013044
B0759544627244N00753217EA0331603553086013044
B0759564627247N00753222EA0331703555087013044
B0759584627250N00753226EA0331903556087013044
B0800004627253N00753230EA0332003558087013044
B0800024627256N00753234EA0332203560087013044
B0800044627259N00753239EA0332403561087014044
B0800064627262N00753243EA0332603563087014044
B0800084627265N00753247EA0332803565087014042
B0800104627268N00753252EA0332903567086014044
B0800124627272N00753256EA0333103569086014044
B0800144627275N00753261EA0333303571086014042
B0800164627278N00753265EA0333503573086014042
B0800184627281N00753269EA0333603574086015042
B0800204627285N00753274EA0333803576086015042
B0800224627288N00753278EA0334003578086015042
B0800244627292N00753283EA0334103580086015042
B0800264627295N00753287EA0334303581085015042
B0800284627298N00753292EA0334403583085015042
B0800304627302N00753296EA0334603585085015040
B0800324627305N00753300EA0334703586085014040
B0800344627309N00753305EA0334803588085014040
B0800364627312N00753309EA0334903589085015040
B0800384627316N00753313EA0335003590085014040
B0800404627319N00753317EA0335003591085014040
B0800424627322N00753322EA0335103591085014040
B0800444627326N00753326EA0335103592084014040
B0800464627329N00753330EA0335103592084014038
B0800484627332N00753334EA0335103593083014038
B0800504627336N00753338EA0335103592083014038
B0800524627339N00753341EA0335103592083014038
B0800544627342N00753345EA0335003591083014038
B0800564627346N00753349EA0335003591083014036
B0800584627349N00753353EA0334903590083014036
B0801004627353N00753356EA0334703588082014036
B0801024627356N00753360EA0334603587082014036
B0801044627359N00753364EA0334403585082013034
B0801064627363N00753367EA0334203583082014034
B0801084627366N00753371EA0334003581081014034
B0801104627370N00753374EA0333703578081013034
B0801124627373N00753377EA0333403575081013032
B0801144627376N00753381EA0333103572081013032
B0801164627380N00753384EA0332703568081013032
B0801184627383N00753387EA0332303564081013032
B0801204627386N00753391EA0331903560081013032
B0801224627388N00753392EA0331503558080013032
B0801244627393N00753397EA0331103551080013032
B0801264627397N00753400EA0330703547082013032
B0801284627400N00753403EA0330303542082013032
B0801304627404N00753407EA0329903538083013032
B0801324627407N00753410EA0329503534083013032
B0801344627410N00753413EA0329103530084013032
B0801364627414N00753416EA0328803526084013032
B0801384627417N00753420EA0328503522084013032
B0801404627421N00753423EA0328103518084013032
B0801424627424N00753426EA0327803515084013032
B0801444627428N00753429EA0327503512084013032
B0801464627431N00753433EA0327303509084013032
B0801484627435N00753436EA0327003506084013032
B0801504627438N00753439EA0326803503084013032
B0801524627442N00753442EA0326503500084013032
B0801544627445N00753446EA0326303497084013032
B0801564627448N00753449EA0326003495084013032
B0801584627452N00753452EA0325803492084013032
B0802004627456N00753456EA0325503490083013032
B0802024627459N00753459EA0325303488083014034
B0802044627463N00753463EA0325103485083013034
B0802064627466N00753466EA0324803483083013034
B0802084627470N00753469EA0324603481083013034
B0802104627473N00753473EA0324403479083013034
B0802124627476N00753476EA0324103476083013034
B0802144627480N00753480EA0323903474083013034
B0802164627483N00753483EA0323703472082013034
B0802184627487N00753487EA0323503470082013036
B0802204627490N00753490EA0323303468082013036
B0802224627493N00753494EA0323103466082013036
B0802244627497N00753497EA0322903464082013036
B0802264627500N00753501EA0322703462082013036
B0802284627503N00753504EA0322603460082013036
B0802304627506N00753507EA0322403458082013036
B0802324627510N00753511EA0322203457082013036
B0802344627513N00753514EA0322103455082013036
B0802364627516N00753518EA0321903453082013036
B0802384627519N00753521EA0321803452083013036
B0802404627523N00753525EA0321703451083013036
B0802424627526N00753528EA0321503449084013036
B0802444627529N00753531EA0321403448084013036
B0802464627532N00753535EA0321403447083013036
B0802484627535N00753538EA0321303446083013036
B0802504627539N00753542EA0321203446083013036
B0802524627542N00753545EA0321203445083013036
B0802544627545N00753549EA0321103444083012036
B0802564627548N00753552EA0321103444084012036
B0802584627551N00753555EA0321103444084013036
B0803004627554N00753559EA0321103444084013036
B0803024627557N00753562EA0321003444084012036
B0803044627561N00753566EA0321003444083012036
B0803064627564N00753569EA0321003444083013038
B0803084627567N00753573EA0321003444083012038
B0803104627570N00753576EA0321003444083012038
B0803124627573N00753580EA0321003444083012038
B0803144627576N00753583EA0321003444083012038
B0803164627579N00753587EA0321003444083012038
B0803184627582N00753590EA0321003443083012038
B0803204627585N00753593EA0321003443083012038
B0803224627588N00753597EA0320903443083012038
B0803244627591N00753600EA0320903443083012038
B0803264627594N00753604EA0320803442082012038
B0803284627597N00753607EA0320803442082012038
B0803304627600N00753610EA0320703441082012038
B0803324627603N00753614EA0320603440082012038
B0803344627606N00753617EA0320503439081012038
B0803364627609N00753621EA0320403438081012038
B0803384627612N00753624EA0320203437081012038
B0803404627615N00753627EA0320103435081012038
B0803424627617N00753631EA0319903434080012038
B0803444627620N00753634EA0319703432080012038
B0803464627623N00753638EA0319503430080012038
B0803484627626N00753641EA0319303428080012038
B0803504627629N00753644EA0319103426080012038
B0803524627632N00753648EA0318903423080012038
B0803544627634N00753651EA0318603421080012038
B0803564627637N00753654EA0318303418080011038
B0803584627640N00753658EA0318003415080011038
B0804004627643N00753661EA0317703412080011038
B0804024627645N00753664EA0317403409080011038
B0804044627648N00753668EA0317003405079011040
B0804064627651N00753671EA0316603401079011040
B0804084627653N00753674EA0316203397079011040
B0804104627656N00753678EA0315803393079011040
B0804124627658N00753681EA0315503389079011040
B0804144627661N00753684EA0315103385079011042
B0804164627663N00753688EA0314703381081011042
B0804184627666N00753691EA0314303376081011042
B0804204627668N00753694EA0313903372081011042
B0804224627671N00753698EA0313503368081010044
B0804244627673N00753701EA0313103364082010044
B0804264627675N00753704EA0312803360082010044
B0804284627678N00753708EA0312403356082010044
B0804304627680N00753711EA0312103353081010044
B0804324627682N00753714EA0311803349081010044
B0804344627684N00753717EA0311503346082010046
B0804364627686N00753720EA0311203343082009044
B0804384627687N00753722EA0310903340083009044
B0804404627689N00753725EA0310703338083009044
B0804424627692N00753728EA0310403335082009044
B0804444627694N00753731EA0310203333082009044
B0804464627695N00753734EA0309903330082009046
B0804484627697N00753737EA0309703328082009048
B0804504627699N00753740EA0309503325082009046
B0804524627701N00753743EA0309203323082009046
B0804544627703N00753746EA0309003321082008046
B0804564627705N00753749EA0308703318082008046
B0804584627706N00753752EA0308503316082008048
B0805004627708N00753755EA0308303313082008048
B0805024627710N00753758EA0308003311082008048
B0805044627711N00753760EA0307703308081008048
B0805064627713N00753763EA0307503305081008048
B0805084627715N00753766EA0307203303081008048
B0805104627716N00753769EA0307003300081008050
B0805124627717N00753771EA0306703298081008050
B0805144627719N00753774EA0306503295081007050
B0805164627720N00753777EA0306303293082007052
B0805184627721N00753780EA0306203291082007052
B0805204627723N00753782EA0306103290087007054
B0805224627724N00753785EA0306003288087007054
B0805244627725N00753788EA0305903288087007056
B0805264627726N00753791EA0305803287087007056
B0805284627728N00753793EA0305803286087007056
B0805304627729N00753796EA0305803286087007058
B0805324627730N00753798EA0305803286087006058
B0805344627731N00753801EA0305803286087006058
B0805364627732N00753803EA0305803286087006058
B0805384627733N00753806EA0305903287087006058
B0805404627734N00753808EA0305903287087006058
B0805424627735N00753810EA0306003288087006058
B0805444627735N00753813EA0306103289087006058
B0805464627736N00753815EA0306103290086005058
B0805484627737N00753817EA0306203290086005058
B0805504627738N00753819EA0306303291086005058
B0805524627739N00753821EA0306403292086005058
B0805544627740N00753823EA0306503293086005056
B0805564627741N00753825EA0306603294086005056
B0805584627742N00753827EA0306703295085005058
B0806004627743N00753829EA0306703296085005056
B0806024627744N00753831EA0306803297085005056
B0806044627744N00753833EA0306903298085005056
B0806064627745N00753835EA0307003299085005058
B0806084627746N00753837EA0307103300084004058
B0806104627747N00753839EA0307103301084004058
B0806124627747N00753840EA0307203301084004058
B0806144627748N00753842EA0307203302084004058
B0806164627749N00753844EA0307303303084004058
B0806184627749N00753846EA0307403303084004058
B0806204627750N00753847EA0307503304084004058
B0806224627751N00753849EA0307503305084004058
B0806244627751N00753850EA0307603306084004058
B0806264627752N00753852EA0307703307084004058
B0806284627753N00753853EA0307803307084001000
B0806304627753N00753854EA0307903307084000000
B0806324627753N00753854EA0307903307084000000
B0806344627753N00753854EA0308003307084000000
B0806364627753N00753854EA0308103307084000000
B0806384627753N00753854EA0308103307083000000
B0806404627753N00753854EA0308203307083000000
B0806424627753N00753854EA0308203307083000000
B0806444627753N00753854EA0308203307083000000
B0806464627753N00753854EA0308203307083000000
B0806484627753N00753854EA0308203307083000000
B0806504627753N00753854EA0308203307083000000
B0806524627753N00753854EA0308203307083000000
B0806544627753N00753854EA0308103307082000000
B0806564627753N00753854EA0308003307082000000
B0806584627753N00753854EA0308003307082000000
B0807004627753N00753854EA0307903307082000000
B0807024627753N00753854EA0307803307082000000
B0807044627753N00753854EA0307703307082000000
B0807064627753N00753854EA0307603307082000000
B0807084627753N00753854EA0307503307083000000
B0807104627753N00753854EA0307403307083000000
B0807124627753N00753854EA0307303307083000000
B0807144627753N00753854EA0307203307083000000
B0807164627753N00753854EA0307003307083000000
B0807184627753N00753854EA0306903307083000000
B0807204627753N00753854EA0306703307082000000
B0807224627753N00753854EA0306503307082000000
B0807244627753N00753854EA0306403307082000000
B0807264627753N00753854EA0306203307082000000
B0807284627753N00753854EA0306003307082000000
B0807304627753N00753854EA0305803307082000000
B0807324627753N00753854EA0305703307082000000
B0807344627753N00753854EA0305503307082000000
B0807364627753N00753854EA0305403307085000000
B0807384627753N00753854EA0305303307085000000
B0807404627753N00753854EA0305303307085000000
B0807424627753N00753854EA0305203307087000000
B0807444627753N00753854EA0305203307087000000
B0807464627753N00753854EA0305203307087000000
B0807484627753N00753854EA0305203307087000000
B0807504627753N00753854EA0305203307087000000
B0807524627753N00753854EA0305203307087000000
B0807544627753N00753854EA0305303307086000000
B0807564627753N00753854EA0305303307086000000
B0807584627753N00753854EA0305403307086000000
B0808004627753N00753854EA0305403307086000000
B0808024627753N00753854EA0305503307086000000
B0808044627753N00753854EA0305603307086000000
B0808064627753N00753854EA0305603307086000000
B0808084627753N00753854EA0305703307086000000
B0808104627753N00753854EA0305803307086000000
B0808124627753N00753854EA0305903307086000000
B0808144627753N00753854EA0306003307086000000
B0808164627753N00753854EA0306003307085000000
B0808184627753N00753854EA0306103307085000000
B0808204627753N00753854EA0306203307085000000
B0808224627753N00753854EA0306203307085000000
B0808244627753N00753854EA0306303307085000000
B0808264627753N00753854EA0306303307085000000
B0808284627753N00753854EA0306403307085000000
B0808304627753N00753854EA0306403307085000000
B0808324627753N00753854EA0306403307084000000
B0808344627753N00753854EA0306403307084000000
B0808364627753N00753854EA0306403307084000000
B0808384627753N00753854EA0306403307084000000
B0808404627753N00753854EA0306303307084000000
B0808424627753N00753854EA0306203307084000000
B0808444627753N00753854EA0306203307084000000
B0808464627753N00753854EA0306203307083000000
B0808484627753N00753854EA0306103307083000000
B0808504627753N00753854EA0306103307084000000
B0808524627753N00753854EA0306003307084000000
B0808544627753N00753854EA0306003307085000000
B0808564627753N00753854EA0306003307085000000
B0808584627753N00753854EA0305903307085000000
B0809004627753N00753854EA0305903307085000000
B0809024627753N00753854EA0305903307085000000
B0809044627753N00753854EA0305903307085000000
B0809064627753N00753854EA0305903307085000000
B0809084627753N00753854EA0305903307085000000
B0809104627753N00753854EA0305903307085000000
B0809124627753N00753854EA0305903307085000000
B0809144627753N00753854EA0306003307085000000
B0809164627753N00753854EA0306003307085000000
B0809184627753N00753854EA0306003307085000000
B0809204627753N00753854EA0306103307085000000
B0809224627753N00753854EA0306103307085000000
B0809244627753N00753854EA0306203307085000000
B0809264627753N00753854EA0306203307085000000
B0809284627753N00753854EA0306303307085000000
B0809304627753N00753854EA0306303307085000000
B0809324627753N00753854EA0306403307085000000
B0809344627753N00753854EA0306403307085000000
B0809364627753N00753854EA0306503307085000000
B0809384627753N00753854EA0306603307085000000
B0809404627753N00753854EA0306703307085000000
B0809424627753N00753854EA0306803307085000000
B0809444627753N00753854EA0306903307086000000
B0809464627753N00753854EA0307003307086000000
B0809484627753N00753854EA0307203307086000000
B0809504627753N00753854EA0307303307086000000
B0809524627753N00753854EA0307503307086000000
B0809544627753N00753854EA0307603307086000000
B0809564627753N00753854EA0307803307086000000
B0809584627753N00753858EA0308003309086001000
B0810004627755N00753877EA0308103311086004080
B0810024627757N00753897EA0308303313085004080
B0810044627759N00753915EA0308403315085004080
B0810064627761N00753930EA0308503317085005080
B0810084627762N00753943EA0308603319085005080
B0810104627763N00753955EA0308803320085005080
B0810124627764N00753965EA0308903322085005080
B0810144627765N00753974EA0308903323084005080
B0810164627765N00753982EA0309003324084005082
B0810184627766N00753989EA0309103325084005082
B0810204627766N00753995EA0309103326084005082
B0810224627767N00754001EA0309103326084005082
B0810244627767N00754006EA0309203327084005082
B0810264627768N00754011EA0309103327084005082
B0810284627768N00754015EA0309103327084005082
B0810304627768N00754019EA0309103326084005082
B0810324627768N00754022EA0309003326083005084
B0810344627768N00754026EA0308903325083004084
B0810364627769N00754029EA0308803324083004084
B0810384627769N00754032EA0308803323083004084
B0810404627769N00754035EA0308703322083004084
B0810424627770N00754037EA0308603321083004084
B0810444627770N00754040EA0308503320084004082
B0810464627770N00754042EA0308403319084004082
B0810484627771N00754045EA0308303318084004080
B0810504627771N00754047EA0308103317084004078
B0810524627771N00754049EA0308003316084004078
B0810544627772N00754051EA0307803314084004076
B0810564627772N00754053EA0307703312084004076
B0810584627773N00754055EA0307503311083004074
B0811004627773N00754057EA0307303309083004072
B0811024627774N00754059EA0307103307083004072
B0811044627774N00754061EA0307003306083001000
B0811064627774N00754061EA0306803306083000000
B0811084627774N00754061EA0306603306083000000
B0811104627774N00754061EA0306403306083000000
B0811124627774N00754061EA0306303306083000000
B0811144627774N00754061EA0306103306084000000
B0811164627774N00754061EA0305903306084000000
B0811184627774N00754061EA0305803306084000000
B0811204627774N00754061EA0305603306084000000
B0811224627774N00754061EA0305503306084000000
B0811244627774N00754061EA0305403306084000000
B0811264627774N00754061EA0305203306084000000
B0811284627774N00754061EA0305103306084000000
B0811304627774N00754061EA0305003306084000000
B0811324627774N00754061EA0304903306084000000
B0811344627774N00754061EA0304703306084000000
B0811364627774N00754061EA0304603306084000000
B0811384627774N00754061EA0304503306084000000
B0811404627774N00754061EA0304403306084000000
B0811424627774N00754061EA0304303306084000000
B0811444627774N00754061EA0304203306084000000
B0811464627774N00754061EA0304203306084000000
B0811484627774N00754061EA0304203306084000000
B0811504627774N00754061EA0304203306084000000
B0811524627774N00754061EA0304303306088000000
B0811544627774N00754061EA0304303306088000000
B0811564627774N00754061EA0304403306088000000
B0811584627774N00754061EA0304503306088000000
B0812004627774N00754061EA0304603306088000000
B0812024627774N00754061EA0304703306088000000
B0812044627774N00754061EA0304803306088000000
B0812064627774N00754061EA0305003306087000000
B0812084627774N00754061EA0305203306087000000
B0812104627774N00754061EA0305303306086000000
B0812124627774N00754061EA0305503306086000000
B0812144627774N00754061EA0305703306086000000
B0812164627774N00754061EA0305903306086000000
B0812184627774N00754061EA0306103306086000000
B0812204627774N00754061EA0306303306086000000
B0812224627774N00754061EA0306503306086000000
B0812244627774N00754061EA0306703306086000000
B0812264627774N00754061EA0306903306086000000
B0812284627774N00754061EA0307203306086000000
B0812304627774N00754061EA0307403306086000000
B0812324627774N00754061EA0307603306085000000
B0812344627774N00754061EA0307803306085000000
B0812364627774N00754061EA0308003306085000000
B0812384627774N00754061EA0308203306085000000
B0812404627774N00754061EA0308403306085000000
B0812424627774N00754061EA0308603306085000000
B0812444627774N00754061EA0308803306084000000
B0812464627774N00754061EA0308903306084000000
B0812484627774N00754061EA0309103306084000000
B0812504627774N00754061EA0309203306084000000
B0812524627774N00754061EA0309303306084000000
B0812544627774N00754061EA0309403306084000000
B0812564627774N00754061EA0309503306083000000
B0812584627774N00754061EA0309603306083000000
B0813004627774N00754061EA0309703306083000000
B0813024627774N00754061EA0309803306083000000
B0813044627774N00754061EA0309803306083000000
B0813064627774N00754061EA0309903306083000000
B0813084627774N00754061EA0309903306083000000
B0813104627774N00754061EA0310003306082000000
B0813124627774N00754061EA0310003306082000000
B0813144627774N00754061EA0310103306083000000
B0813164627774N00754061EA0310103306083000000
B0813184627774N00754061EA0310103306083000000
B0813204627774N00754061EA0310203306083000000
B0813224627774N00754061EA0310203306082000000
B0813244627774N00754061EA0310203306082000000
B0813264627774N00754061EA0310303306082000000
B0813284627774N00754061EA0310303306082000000
B0813304627774N00754061EA0310303306082000000
B0813324627774N00754061EA0310203306082000000
B0813344627774N00754061EA0310203306082000000
B0813364627774N00754061EA0310203306081000000
B0813384627774N00754061EA0310103306081000000
B0813404627774N00754061EA0310003306080000000
B0813424627774N00754061EA0309903306080000000
B0813444627786N00754096EA0309703337080001000
B0813464627809N00754169EA0309603335080004064
B0813484627810N00754171EA0309503334079004064
B0813504627810N00754173EA0309303332079004064
B0813524627810N00754175EA0309103331079004064
B0813544627810N00754177EA0309003329079004064
B0813564627811N00754179EA0308903328082004064
B0813584627811N00754181EA0308803326082004066
B0814004627811N00754183EA0308703325083004080
B0814024627811N00754185EA0308603324083004082
B0814044627811N00754187EA0308503323083004084
B0814064627811N00754190EA0308403322084004086
B0814084627811N00754192EA0308303321084004086
B0814104627811N00754194EA0308203320084004088
B0814124627811N00754196EA0308103319084004088
B0814144627811N00754198EA0308003318083004090
B0814164627811N00754200EA0307903318083004092
B0814184627811N00754202EA0307803317083004092
B0814204627810N00754204EA0307803316083004092
B0814224627810N00754205EA0307703316082004094
B0814244627810N00754207EA0307703315082004094
B0814264627810N00754209EA0307703315085004094
B0814284627810N00754211EA0307703315085004096
B0814304627809N00754213EA0307703315086004096
B0814324627809N00754215EA0307703316086004096
B0814344627809N00754216EA0307803316086004096
B0814364627809N00754218EA0307803317086003098
B0814384627809N00754220EA0307903317086003098
B0814404627808N00754221EA0308003318086003100
B0814424627808N00754223EA0308103319086003100
B0814444627808N00754224EA0308103320085003100
B0814464627808N00754226EA0308203321085003100
B0814484627807N00754227EA0308303322085003100
B0814504627807N00754229EA0308403323085003100
B0814524627807N00754230EA0308503324084003100
B0814544627807N00754232EA0308603325084003102
B0814564627807N00754233EA0308703326084003100
B0814584627806N00754235EA0308803326084003100
B0815004627806N00754236EA0308803327083003100
B0815024627806N00754238EA0308903328083003100
B0815044627806N00754239EA0309003329083003102
B0815064627806N00754240EA0309003329083003100
B0815084627805N00754242EA0309103330083003100
B0815104627805N00754243EA0309203331083003100
B0815124627805N00754245EA0309203331083003100
B0815144627805N00754246EA0309303332083003100
B0815164627805N00754248EA0309303332083003100
B0815184627805N00754249EA0309303333083003100
B0815204627804N00754251EA0309403333083003098
B0815224627804N00754252EA0309403334083003098
B0815244627804N00754254EA0309503334083003098
B0815264627804N00754255EA0309503335082003096
B0815284627804N00754257EA0309603336082003096
B0815304627804N00754259EA0309803337082004096
B0815324627804N00754261EA0309903338082004096
B0815344627803N00754262EA0310003339085004096
B0815364627803N00754264EA0310203341085004098
B0815384627803N00754266EA0310303342085004098
B0815404627803N00754268EA0310403344085004098
B0815424627802N00754270EA0310603345085004098
B0815444627802N00754272EA0310803347085004100
B0815464627802N00754274EA0310903349085004100
B0815484627802N00754276EA0311103351085005100
B0815504627801N00754278EA0311303352085005100
B0815524627801N00754281EA0311503354085005100
B0815544627801N00754283EA0311703356085005098
B0815564627801N00754285EA0311803358085005098
B0815584627800N00754288EA0312003360085005098
B0816004627800N00754290EA0312203362085005098
B0816024627800N00754293EA0312303363085005096
B0816044627800N00754295EA0312503365085006096
B0816064627800N00754298EA0312603367085006094
B0816084627800N00754301EA0312703369085006090
B0816104627800N00754304EA0312803371085006088
B0816124627800N00754306EA0312903372084006088
B0816144627801N00754309EA0313003374084006086
B0816164627801N00754312EA0313103375084006084
B0816184627801N00754315EA0313203376084006084
B0816204627802N00754318EA0313203377084006082
B0816224627802N00754320EA0313303377084006080
B0816244627802N00754323EA0313403378084006080
B0816264627803N00754326EA0313603379084006078
B0816284627803N00754329EA0313703380084006076
B0816304627804N00754332EA0313803381085006074
B0816324627805N00754335EA0314003383085006072
B0816344627806N00754338EA0314103384085007070
B0816364627806N00754341EA0314303386085007068
B0816384627807N00754343EA0314503387085007068
B0816404627808N00754346EA0314603389085007066
B0816424627809N00754349EA0314803391085007066
B0816444627810N00754352EA0315003392085007064
B0816464627811N00754355EA0315203394085007062
B0816484627812N00754359EA0315403396085007062
B0816504627814N00754362EA0315603398085008062
B0816524627815N00754365EA0315803399085008060
B0816544627816N00754368EA0316003401085008058
B0816564627817N00754371EA0316103403084008058
B0816584627819N00754374EA0316303405084008058
B0817004627820N00754377EA0316503407084008056
B0817024627822N00754381EA0316703408084009056
B0817044627823N00754384EA0316903410084009054
B0817064627825N00754388EA0317003412084009056
B0817084627827N00754391EA0317203414084009054
B0817104627828N00754395EA0317303415084009054
B0817124627830N00754398EA0317503417084010054
B0817144627833N00754404EA0317603418084010054
B0817164627835N00754407EA0317703419083010054
B0817184627836N00754411EA0317803420083010054
B0817204627838N00754415EA0317803421083010056
B0817224627840N00754419EA0317903421083010056
B0817244627841N00754422EA0317903421083010056
B0817264627843N00754426EA0317903421083010056
B0817284627845N00754430EA0317903421083010056
B0817304627846N00754434EA0317903421083010058
B0817324627848N00754437EA0317803421083010058
B0817344627850N00754441EA0317803420082009058
B0817364627850N00754443EA0317703419082009058
B0817384627852N00754447EA0317603418082009060
B0817404627853N00754450EA0317603418082009060
B0817424627855N00754454EA0317503417082009058
B0817444627856N00754458EA0317503416082009058
B0817464627857N00754461EA0317403415083009060
B0817484627859N00754465EA0317303414083009058
B0817504627860N00754468EA0317303414083009058
B0817524627862N00754472EA0317303413083009058
B0817544627863N00754475EA0317203413083009058
B0817564627865N00754479EA0317203412083009058
B0817584627866N00754482EA0317103412083009058
B0818004627868N00754486EA0317103411082009058
B0818024627869N00754488EA0317003411082009056
B0818044627871N00754493EA0316903410082009058
B0818064627872N00754496EA0316803410082009058
B0818084627873N00754500EA0316703409082009058
B0818104627875N00754503EA0316703408082009058
B0818124627876N00754507EA0316503407081008060
B0818144627877N00754510EA0316403406081008060
B0818164627879N00754513EA0316403406081008060
B0818184627880N00754517EA0316303405081008060
B0818204627881N00754520EA0316203404083008062
B0818224627882N00754523EA0316203404083008062
B0818244627883N00754527EA0316103403083008062
B0818264627884N00754530EA0316103403084008062
B0818284627885N00754533EA0316103403084008064
B0818304627887N00754536EA0316103403084008064
B0818324627888N00754540EA0316103402084008062
B0818344627889N00754543EA0316103402084008062
B0818364627890N00754546EA0316103402084008062
B0818384627891N00754549EA0316103403083008064
B0818404627892N00754552EA0316103403083008064
B0818424627893N00754555EA0316103403083008062
B0818444627894N00754559EA0316203403083008062
B0818464627895N00754562EA0316203404083008064
B0818484627896N00754565EA0316303405083007064
B0818504627897N00754568EA0316503406085008064
B0818524627898N00754571EA0316603407085008064
B0818544627899N00754575EA0316803409085008064
B0818564627900N00754578EA0317003411086008064
B0818584627902N00754582EA0317203413086009064
B0819004627903N00754585EA0317403415086009064
B0819024627904N00754589EA0317503417086009064
B0819044627906N00754595EA0317703419086010064
B0819064627907N00754599EA0317903421086010064
B0819084627909N00754604EA0318103422085011064
B0819104627910N00754608EA0318203424085011062
B0819124627912N00754613EA0318303425085012060
B0819144627914N00754618EA0318403426085012058
B0819164627916N00754623EA0318503428085012056
B0819184627918N00754628EA0318603428085013056
B0819204627920N00754632EA0318603429085013054
B0819224627922N00754637EA0318703429085013052
B0819244627925N00754642EA0318703430085013050
B0819264627927N00754646EA0318703430085013050
B0819284627930N00754651EA0318703430085013048
B0819304627933N00754655EA0318703430085012048
B0819324627935N00754659EA0318703430085012046
B0819344627938N00754663EA0318703430084012044
B0819364627941N00754667EA0318703430084012042
B0819384627943N00754670EA0318603429084012042
B0819404627946N00754674EA0318603429084011040
B0819424627949N00754677EA0318603429084011040
B0819444627951N00754680EA0318603429084011040
B0819464627954N00754684EA0318503428084011040
B0819484627957N00754687EA0318503428084011040
B0819504627959N00754690EA0318503428084011040
B0819524627962N00754693EA0318403427084011040
B0819544627964N00754696EA0318303427084010042
B0819564627966N00754699EA0318303426084010040
B0819584627969N00754702EA0318203425084010040
B0820004627971N00754705EA0318103424083010040
B0820024627974N00754708EA0318003424083010042
B0820044627976N00754711EA0317903423083010042
B0820064627978N00754714EA0317903422083010040
B0820084627980N00754717EA0317803421083010042
B0820104627981N00754718EA0317703419083009040
B0820124627984N00754721EA0317503418084009042
B0820144627986N00754724EA0317403417084009042
B0820164627988N00754727EA0317303416084009042
B0820184627990N00754730EA0317103414084009044
B0820204627992N00754733EA0316903413084009044
B0820224627994N00754736EA0316703411084009044
B0820244627996N00754739EA0316603409083009044
B0820264627998N00754742EA0316403407083009044
B0820284628000N00754745EA0316303405085009046
B0820304628002N00754748EA0316103404085009046
B0820324628003N00754751EA0316003402085009046
B0820344628005N00754754EA0315903401088009046
B0820364628007N00754757EA0315903400088009044
B0820384628009N00754760EA0315803399089008044
B0820404628011N00754763EA0315803398089008046
B0820424628013N00754766EA0315803398089008048
B0820444628014N00754769EA0315803398089008048
B0820464628016N00754771EA0315803398089008048
B0820484628018N00754774EA0315903398089008048
B0820504628020N00754777EA0316003399089008048
B0820524628022N00754780EA0316103399089008046
B0820544628023N00754783EA0316203401089008048
B0820564628025N00754786EA0316403402089008046
B0820584628027N00754789EA0316603404089008048
B0821004628029N00754792EA0316703405089009048
B0821024628031N00754795EA0317003407088009046
B0821044628032N00754798EA0317203409088009048
B0821064628034N00754801EA0317403412088009048
B0821084628036N00754804EA0317703414088009048
B0821104628038N00754807EA0317903417088009048
B0821124628040N00754810EA0318203420088009048
B0821144628042N00754814EA0318403422088010050
B0821164628045N00754819EA0318703425088010048
B0821184628047N00754822EA0318903428088010048
B0821204628049N00754826EA0319103431088010048
B0821224628052N00754829EA0319403433088011048
B0821244628054N00754833EA0319603436088011050
B0821264628056N00754837EA0319803438088011048
B0821284628058N00754840EA0320003440087011048
B0821304628061N00754844EA0320203443087011048
B0821324628063N00754848EA0320403445087011048
B0821344628066N00754852EA0320603447087011048
B0821364628068N00754856EA0320803449087012048
B0821384628070N00754860EA0321003451087012050
B0821404628073N00754864EA0321103452087012050
B0821424628075N00754868EA0321303454087012050
B0821444628077N00754872EA0321403455087012050
B0821464628080N00754876EA0321503457086011050
B0821484628082N00754880EA0321703458086011052
B0821504628084N00754884EA0321803459086011052
B0821524628086N00754888EA0321903461086011052
B0821544628088N00754892EA0322003462086011052
B0821564628090N00754896EA0322103463086010052
B0821584628092N00754899EA0322203464086010054
B0822004628094N00754903EA0322303465086010056
B0822024628096N00754907EA0322403465085010052
B0822044628096N00754909EA0322503466085010054
B0822064628098N00754912EA0322603467085009052
B0822084628100N00754915EA0322703468085009052
B0822104628102N00754919EA0322803469085009052
B0822124628104N00754922EA0322903470085009052
B0822144628105N00754925EA0323003471085009052
B0822164628107N00754929EA0323103472084009050
B0822184628109N00754932EA0323203473084009050
B0822204628111N00754935EA0323303474084009050
B0822224628113N00754939EA0323303474084009050
B0822244628115N00754942EA0323403475083009048
B0822264628117N00754945EA0323403476083009048
B0822284628119N00754948EA0323403476083009048
B0822304628121N00754951EA0323403477083009048
B0822324628123N00754955EA0323403477083009048
B0822344628125N00754958EA0323403477083010048
B0822364628127N00754961EA0323303477082009046
B0822384628129N00754964EA0323303476082009048
B0822404628131N00754968EA0323203476082009046
B0822424628132N00754971EA0323203476082009048
B0822444628134N00754974EA0323103475082009048
B0822464628136N00754977EA0323103475084009048
B0822484628138N00754980EA0323003474084009046
B0822504628140N00754983EA0322903473084009046
B0822524628142N00754986EA0322903473084009046
B0822544628144N00754989EA0322803472083009048
B0822564628146N00754993EA0322703471083009048
B0822584628148N00754996EA0322703471083009048
B0823004628150N00754999EA0322703470083009048
B0823024628151N00755002EA0322603470084009048
B0823044628153N00755005EA0322603469084009048
B0823064628155N00755008EA0322603469084009048
B0823084628157N00755012EA0322603469084009048
B0823104628159N00755015EA0322603469084009048
B0823124628161N00755018EA0322503468084009048
B0823144628163N00755021EA0322503468084009048
B0823164628166N00755026EA0322503468083009048
B0823184628167N00755028EA0322503468083009048
B0823204628169N00755031EA0322503468083009048
B0823224628172N00755036EA0322403468083010048
B0823244628174N00755040EA0322403467083010048
B0823264628176N00755043EA0322403467083010048
B0823284628178N00755046EA0322303467082010048
B0823304628180N00755050EA0322303467082010048
B0823324628182N00755053EA0322303466082010048
B0823344628184N00755056EA0322303467082010048
B0823364628186N00755060EA0322303467084010048
B0823384628188N00755063EA0322303467084010048
B0823404628190N00755067EA0322303467085010050
B0823424628192N00755070EA0322303467085010050
B0823444628194N00755074EA0322403467085010048
B0823464628196N00755077EA0322403467085010048
B0823484628198N00755081EA0322403467085010050
B0823504628200N00755085EA0322503467085010050
B0823524628202N00755088EA0322603468085010048
B0823544628204N00755092EA0322703468084010048
B0823564628206N00755095EA0322803469084010050
B0823584628209N00755099EA0322903470085010048
B0824004628210N00755102EA0323003472085010048
B0824024628213N00755105EA0323103473085010048
B0824044628215N00755109EA0323303475085010048
B0824064628217N00755112EA0323503477085010048
B0824084628219N00755116EA0323603478085010048
B0824104628221N00755119EA0323803480084010048
B0824124628224N00755123EA0323903482084010048
B0824144628226N00755126EA0324103483084010046
B0824164628228N00755129EA0324303485084010046
B0824184628230N00755133EA0324403487084010046
B0824204628233N00755136EA0324603488084010046
B0824224628235N00755140EA0324703490084010046
B0824244628237N00755143EA0324903491083010046
B0824264628239N00755147EA0325003493083010046
B0824284628241N00755150EA0325203494083010046
B0824304628244N00755153EA0325303496083010046
B0824324628246N00755157EA0325503497082010046
B0824344628248N00755160EA0325603498082010044
B0824364628251N00755163EA0325703500082010046
B0824384628253N00755167EA0325903501082010046
B0824404628255N00755170EA0326003503082010046
B0824424628257N00755174EA0326203504082010046
B0824444628260N00755177EA0326403506083010046
B0824464628262N00755180EA0326503508083010044
B0824484628264N00755184EA0326703509083010044
B0824504628267N00755187EA0326803511083010044
B0824524628269N00755190EA0327003512083010044
B0824544628271N00755194EA0327103514083010044
B0824564628273N00755197EA0327203515083011044
B0824584628276N00755200EA0327403517082010044
B0825004628278N00755204EA0327503518082010044
B0825024628281N00755207EA0327703520082011044
B0825044628283N00755211EA0327903522082011046
B0825064628285N00755214EA0328003523082011046
B0825084628287N00755218EA0328203525082011046
B0825104628290N00755221EA0328403527082011046
B0825124628292N00755225EA0328603529082011046
B0825144628295N00755228EA0328703531082011046
B0825164628297N00755232EA0328903532082011044
B0825184628299N00755235EA0329103534082011046
B0825204628302N00755239EA0329203536082011044
B0825224628304N00755242EA0329403537082011044
B0825244628307N00755246EA0329503539081011044
B0825264628309N00755250EA0329703540081011044
B0825284628312N00755253EA0329803542081012044
B0825304628314N00755257EA0329903543081012044
B0825324628317N00755261EA0330103545081012044
B0825344628320N00755264EA0330203546081012044
B0825364628322N00755268EA0330303548082012044
B0825384628325N00755272EA0330503549082012044
B0825404628328N00755276EA0330603550082012042
B0825424628330N00755280EA0330703551082012042
B0825444628333N00755284EA0330803553082012042
B0825464628336N00755287EA0331003554082013042
B0825484628339N00755291EA0331103555081013042
B0825504628342N00755295EA0331203557081013042
B0825524628345N00755299EA0331303558081013042
B0825544628348N00755303EA0331503560081013042
B0825564628351N00755307EA0331603561081013042
B0825584628354N00755311EA0331703562081013042
B0826004628357N00755316EA0331803564081013044
B0826024628360N00755320EA0331903565081013044
B0826044628363N00755324EA0332003566081013044
B0826064628366N00755328EA0332103567080013044
B0826084628369N00755332EA0332203568080013044
B0826104628372N00755337EA0332303569080013046
B0826124628375N00755341EA0332303570080013046
B0826144628378N00755345EA0332403571080013048
B0826164628380N00755349EA0332403572080013048
B0826184628383N00755354EA0332503572079013048
B0826204628386N00755358EA0332503573079013050
B0826224628388N00755363EA0332503573079013050
B0826244628391N00755367EA0332603573079013050
B0826264628393N00755371EA0332603574079012050
B0826284628396N00755376EA0332603574079012052
B0826304628398N00755380EA0332603574079012052
B0826324628400N00755385EA0332603574079012054
B0826344628402N00755389EA0332603573079012054
B0826364628405N00755393EA0332503573078012054
B0826384628407N00755398EA0332503573078012054
B0826404628409N00755402EA0332403572078011054
B0826424628411N00755406EA0332303571078011056
B0826444628413N00755410EA0332203570078011056
B0826464628415N00755415EA0332103569078011056
B0826484628416N00755419EA0332003568078011056
B0826504628418N00755423EA0331803567078011056
B0826524628420N00755427EA0331703565078011056
B0826544628422N00755431EA0331503563078011056
B0826564628424N00755436EA0331303562078011058
B0826584628426N00755440EA0331103560078011056
B0827004628427N00755444EA0330903558078011058
B0827024628429N00755448EA0330803556080011058
B0827044628431N00755453EA0330703555080011058
B0827064628433N00755457EA0330503553083011056
B0827084628435N00755461EA0330403552083011058
B0827104628436N00755465EA0330303551085011056
B0827124628438N00755469EA0330303550085011054
B0827144628440N00755473EA0330203549085011054
B0827164628442N00755477EA0330103549085011054
B0827184628445N00755482EA0330103548085011054
B0827204628446N00755486EA0330103548085011052
B0827224628449N00755490EA0330103548085011052
B0827244628451N00755494EA0330003547085011052
B0827264628453N00755498EA0330003547084011052
B0827284628455N00755502EA0330003547084011052
B0827304628457N00755506EA0330003547084011052
B0827324628459N00755510EA0330003547084011052
B0827344628461N00755514EA0329903546084011052
B0827364628464N00755518EA0329903546084011050
B0827384628466N00755521EA0329903546084011050
B0827404628468N00755525EA0329903546084011050
B0827424628470N00755529EA0329903546084011050
B0827444628473N00755533EA0329803545084011050
B0827464628475N00755537EA0329803545084011048
B0827484628477N00755541EA0329703544083011050
B0827504628480N00755544EA0329703544083011050
B0827524628482N00755548EA0329603543083011048
B0827544628484N00755552EA0329603543083011048
B0827564628487N00755556EA0329503542083011048
B0827584628489N00755560EA0329503542083011048
B0828004628491N00755563EA0329403541083011046
B0828024628493N00755567EA0329303540083011046
B0828044628496N00755571EA0329303540083011046
B0828064628498N00755575EA0329203539083011048
B0828084628501N00755579EA0329103538083011046
B0828104628503N00755582EA0329003537083011046
B0828124628505N00755586EA0329003536083011046
B0828144628508N00755590EA0329003536083011046
B0828164628510N00755593EA0328903535083011046
B0828184628512N00755597EA0328903535084011046
B0828204628515N00755601EA0328903535084011046
B0828224628517N00755604EA0329003535084011046
B0828244628520N00755608EA0329003535084011046
B0828264628522N00755611EA0329103536085011046
B0828284628525N00755615EA0329203537085011046
B0828304628527N00755618EA0329403539086011046
B0828324628530N00755622EA0329503541086011044
B0828344628532N00755626EA0329703543086011044
B0828364628535N00755629EA0329903545086011046
B0828384628537N00755633EA0330103547086011044
B0828404628540N00755636EA0330403550086011044
B0828424628543N00755640EA0330603552086011044
B0828444628545N00755643EA0330903555086011044
B0828464628548N00755647EA0331203558086011044
B0828484628550N00755651EA0331503562086012044
B0828504628553N00755654EA0331803565086012044
B0828524628556N00755658EA0332103568085012044
B0828544628559N00755662EA0332403571085012044
B0828564628561N00755665EA0332703574085012042
B0828584628564N00755669EA0333003578085012044
B0829004628567N00755673EA0333303581085012044
B0829024628570N00755677EA0333603584085012044
B0829044628572N00755681EA0333903588084012044
B0829064628575N00755685EA0334203591084013044
B0829084628578N00755689EA0334503594084013044
B0829104628581N00755693EA0334803597084013044
B0829124628584N00755697EA0335103600084013044
B0829144628586N00755701EA0335303602084013044
B0829164628589N00755705EA0335603605084013044
B0829184628592N00755709EA0335803607084013044
B0829204628595N00755713EA0336003610084013042
B0829224628598N00755717EA0336303612083013044
B0829244628600N00755721EA0336503614083013044
B0829264628603N00755725EA0336703616083013044
B0829284628606N00755729EA0336803618083013044
B0829304628609N00755733EA0337003620083013044
B0829324628612N00755737EA0337203622083013044
B0829344628614N00755741EA0337303624082013042
B0829364628617N00755745EA0337503626082012042
B0829384628620N00755749EA0337603627082013042
B0829404628623N00755753EA0337703629082013044
B0829424628626N00755757EA0337803630082013042
B0829444628629N00755760EA0337903631082012042
B0829464628631N00755764EA0338003632082012042
B0829484628634N00755768EA0338103633113015044
B0829504628637N00755772EA0338203634113015042
B0829524628640N00755775EA0338303636113015042
B0829544628643N00755779EA0338403637113015042
B0829564628646N00755783EA0338503637082013042
B0829584628648N00755787EA0338603638082013042
B0830004628651N00755791EA0338703639082012042
B0830024628654N00755795EA0338703640082012042
B0830044628657N00755798EA0338803640082013042
B0830064628660N00755802EA0338903641082013042
B0830084628663N00755806EA0338903642081012042
B0830104628666N00755810EA0339003642081012044
B0830124628668N00755814EA0339003642081013044
B0830144628671N00755818EA0339103643081013044
B0830164628674N00755822EA0339203644081012044
B0830184628677N00755826EA0339303644081012044
B0830204628679N00755830EA0339403645081012042
B0830224628682N00755834EA0339403646083012044
B0830244628685N00755838EA0339503647083012044
B0830264628688N00755841EA0339603648084012046
B0830284628690N00755845EA0339703649084012044
B0830304628693N00755849EA0339803650084012044
B0830324628696N00755853EA0339903651084012044
B0830344628698N00755857EA0340003652083012044
B0830364628701N00755861EA0340103653083012044
B0830384628704N00755865EA0340203654083012044
B0830404628706N00755868EA0340403655083012044
B0830424628709N00755872EA0340503657083012046
B0830444628712N00755876EA0340603658084012044
B0830464628714N00755880EA0340803660084012044
B0830484628717N00755884EA0340903661084012044
B0830504628720N00755887EA0341103663084012044
B0830524628723N00755891EA0341203664084013044
B0830544628725N00755895EA0341303665084012044
B0830564628728N00755899EA0341503667084012044
B0830584628730N00755902EA0341603668084012044
B0831004628733N00755906EA0341703670083012044
B0831024628736N00755910EA0341803671083012042
B0831044628738N00755913EA0341903672083012044
B0831064628741N00755917EA0341903673083012044
B0831084628744N00755921EA0342003673082012044
B0831104628746N00755925EA0342003673082012044
B0831124628749N00755928EA0342103674082012044
B0831144628751N00755932EA0342103674082012044
B0831164628754N00755936EA0342103674082012044
B0831184628757N00755940EA0342203675082012044
B0831204628759N00755944EA0342203675082012044
B0831234628762N00755947EA0342203675082012046
B0831254628765N00755951EA0342203675082012044
B0831274628767N00755955EA0342303676082011044
B0831294628770N00755958EA0342303676082011044
B0831314628772N00755962EA0342303676081011046
B0831334628775N00755965EA0342403677081011044
B0831354628777N00755969EA0342503678082012044
B0831374628780N00755973EA0342503678082011044
B0831394628782N00755976EA0342603679082011044
B0831414628785N00755980EA0342703680082011042
B0831434628787N00755983EA0342903681084011042
B0831454628790N00755986EA0343003682084011042
B0831474628793N00755990EA0343103684084011042
B0831494628795N00755993EA0343203685084011042
B0831514628798N00755996EA0343403686084011040
B0831534628800N00756000EA0343503688083011042
B0831554628803N00756003EA0343703689083011042
B0831574628806N00756006EA0343803691083011040
B0831594628808N00756010EA0344003693083011040
B0832014628811N00756013EA0344203694084011040
B0832034628814N00756016EA0344403696084011040
B0832054628816N00756020EA0344603699084011040
B0832074628819N00756023EA0344803701084011040
B0832094628822N00756026EA0345003703084011040
B0832114628824N00756029EA0345203705084011040
B0832134628827N00756033EA0345403706084011040
B0832154628830N00756036EA0345503708084011040
B0832174628832N00756039EA0345703710083011042
B0832194628835N00756043EA0345903712083011042
B0832214628837N00756046EA0346103713083011042
B0832234628840N00756049EA0346203715083011042
B0832254628842N00756053EA0346403717083011042
B0832274628845N00756056EA0346503718083011042
B0832294628847N00756059EA0346703720083011042
B0832314628850N00756063EA0346803721082011042
B0832334628852N00756066EA0346903722082010042
B0832354628854N00756069EA0347103724082010042
B0832374628857N00756072EA0347203725082010040
B0832394628859N00756075EA0347303726082010042
B0832414628862N00756078EA0347403727082010042
B0832434628864N00756082EA0347503728081010042
B0832454628867N00756085EA0347603729081010040
B0832474628869N00756088EA0347703729081010040
B0832494628872N00756091EA0347703730081010042
B0832514628874N00756094EA0347803731081010040
B0832534628876N00756097EA0347903731081010040
B0832554628879N00756100EA0347903732081010040
B0832574628881N00756103EA0348003732081010042
B0832594628883N00756106EA0348003733081010042
B0833014628886N00756109EA0348103733080010040
B0833034628888N00756112EA0348103734080010042
B0833054628891N00756115EA0348203734080010042
B0833074628893N00756118EA0348203734080010040
B0833094628895N00756121EA0348303735081010042
B0833114628897N00756124EA0348303736081010042
B0833134628900N00756127EA0348403736081010042
B0833154628902N00756130EA0348403737081010042
B0833174628904N00756133EA0348503737081010042
B0833194628907N00756136EA0348503737081010044
B0833214628909N00756139EA0348503738080010044
B0833234628911N00756142EA0348503738080010042
B0833254628914N00756146EA0348603738080010042
B0833274628916N00756149EA0348603738080010044
B0833294628918N00756152EA0348603738080010044
B0833314628920N00756155EA0348503738080010042
B0833334628923N00756158EA0348503738080010042
B0833354628925N00756161EA0348403737079010044
B0833374628927N00756164EA0348303736079010044
B0833394628929N00756167EA0348203735079010042
B0833414628932N00756170EA0348103734079010042
B0833434628933N00756172EA0347903732079009042
B0833454628935N00756175EA0347703731079009042
B0833474628937N00756178EA0347503729079009044
B0833494628939N00756181EA0347403727079009044
B0833514628941N00756184EA0347203725079009044
B0833534628943N00756187EA0347103723079010044
B0833554628947N00756192EA0347003722084010044
B0833574628949N00756195EA0346903720084010044
B0833594628951N00756199EA0346903720084010046
B0834014628952N00756200EA0347003720088009044
B0834034628954N00756203EA0347103720088009046
B0834054628956N00756206EA0347203721089009046
B0834074628958N00756209EA0347403723089009046
B0834094628960N00756213EA0347603724089009048
B0834114628962N00756216EA0347903727089009046
B0834134628964N00756219EA0348203730088009046
B0834154628966N00756222EA0348503733088009044
B0834174628967N00756225EA0348803736088009046
B0834194628969N00756228EA0349203740088009046
B0834214628971N00756231EA0349603744088009046
B0834234628973N00756234EA0350003748088009046
B0834254628975N00756237EA0350403752088009044
B0834274628977N00756240EA0350803756088009044
B0834294628979N00756243EA0351203760088009044
B0834314628982N00756246EA0351603765087009044
B0834334628984N00756249EA0352003769087009044
B0834354628986N00756252EA0352403773087009044
B0834374628988N00756255EA0352803777087009044
B0834394628990N00756258EA0353203782087009044
B0834414628992N00756261EA0353503785087009044
B0834434628994N00756264EA0353903789086009046
B0834454628996N00756267EA0354203793086010044
B0834474628999N00756272EA0354503796086009044
B0834494629000N00756273EA0354803800086009042
B0834514629002N00756277EA0355103803086010044
B0834534629006N00756281EA0355403806086010044
B0834554629008N00756284EA0355703809086010044
B0834574629010N00756287EA0355903812086010044
B0834594629012N00756290EA0356203815085010042
B0835014629015N00756293EA0356403817085010042
B0835034629017N00756297EA0356703820085010042
B0835054629019N00756300EA0356903822085010044
B0835074629021N00756303EA0357103824085010042
B0835094629024N00756306EA0357303826085010042
B0835114629026N00756309EA0357503828085010044
B0835134629028N00756312EA0357603830085010044
B0835154629031N00756316EA0357803832085010042
B0835174629033N00756319EA0358003834084011042
B0835194629036N00756322EA0358103835084010042
B0835214629038N00756325EA0358303837084010042
B0835234629040N00756328EA0358403839084010042
B0835254629043N00756331EA0358503840084010042
B0835274629045N00756335EA0358603841084010042
B0835294629048N00756338EA0358703842083010042
B0835314629050N00756341EA0358803843083010040
B0835334629053N00756344EA0358803844083010040
B0835354629055N00756347EA0358903845083010042
B0835374629057N00756350EA0358903845083010040
B0835394629060N00756353EA0358903845083010040
B0835414629062N00756357EA0358803845083010040
B0835434629064N00756360EA0358803845082010042
B0835454629067N00756363EA0358703844082010042
B0835474629069N00756366EA0358603843081010042
B0835494629072N00756369EA0358403842081010044
B0835514629074N00756372EA0358203840081010044
B0835534629076N00756376EA0358003838081010044
B0835554629079N00756379EA0357803836081010042
B0835574629081N00756382EA0357503833081011044
B0835594629083N00756386EA0357203830081011044
B0836014629086N00756389EA0357003827081011044
B0836034629088N00756393EA0356703825083011044
B0836054629090N00756396EA0356403822083011046
B0836074629093N00756400EA0356203819083011046
B0836094629095N00756404EA0356003816086011046
B0836114629097N00756407EA0355703814086011046
B0836134629100N00756411EA0355503812087011048
B0836154629102N00756415EA0355403810087011048
B0836174629104N00756419EA0355203808087012048
B0836194629107N00756423EA0355103806087012050
B0836214629109N00756427EA0355003805087012050
B0836234629111N00756431EA0354903804087012048
B0836254629114N00756435EA0354903803087012050
B0836274629116N00756439EA0354803802087012052
B0836294629118N00756444EA0354803802087012050
B0836314629121N00756448EA0354803802087013048
B0836334629123N00756452EA0354903802088012050
B0836354629126N00756457EA0354903802088012052
B0836374629128N00756461EA0355003803088012052
B0836394629130N00756465EA0355103804088012050
B0836414629132N00756470EA0355203805088012050
B0836434629135N00756474EA0355303806088012052
B0836454629137N00756478EA0355403807088012050
B0836474629140N00756482EA0355503809087012050
B0836494629142N00756487EA0355703810087012050
B0836514629144N00756491EA0355803812087012052
B0836534629146N00756495EA0356003813087012052
B0836554629149N00756499EA0356203815087012050
B0836574629151N00756503EA0356303817087012050
B0836594629153N00756508EA0356503819087012052
B0837014629156N00756512EA0356703821087012052
B0837034629158N00756516EA0356903822087011050
B0837054629160N00756520EA0357003824087011050
B0837074629162N00756524EA0357203826087011052
B0837094629165N00756528EA0357403828087011050
B0837114629167N00756532EA0357503830087011050
B0837134629169N00756535EA0357703831087011050
B0837154629171N00756539EA0357803833087011050
B0837174629173N00756543EA0357903834086011048
B0837194629175N00756547EA0358103836086011048
B0837214629178N00756550EA0358203837086011048
B0837234629180N00756554EA0358203838086011048
B0837254629182N00756558EA0358303839086011046
B0837274629185N00756561EA0358403840086011044
B0837294629187N00756565EA0358403841085011046
B0837314629189N00756568EA0358403842085011044
B0837334629192N00756572EA0358403842085011044
B0837354629194N00756575EA0358503843085011042
B0837374629197N00756578EA0358503843085011040
B0837394629199N00756581EA0358503843085011042
B0837414629202N00756584EA0358403843085011040
B0837434629204N00756587EA0358403843084011040
B0837454629207N00756590EA0358403843084011040
B0837474629209N00756593EA0358303842084011038
B0837494629212N00756596EA0358303841084010038
B0837514629214N00756599EA0358203841084011038
B0837534629217N00756602EA0358103840084011038
B0837554629219N00756604EA0358103840083011036
B0837574629222N00756607EA0358003839083011036
B0837594629225N00756610EA0357903838083011036
B0838014629228N00756613EA0357803837083011038
B0838034629230N00756616EA0357703836083011036
B0838054629233N00756619EA0357603835083011036
B0838074629235N00756622EA0357503834082011038
B0838094629238N00756625EA0357403833082011038
B0838114629241N00756628EA0357303831082011038
B0838134629243N00756631EA0357203830082011038
B0838154629246N00756634EA0357003829082011038
B0838174629248N00756637EA0356903828082010040
B0838194629251N00756640EA0356803827082010040
B0838214629254N00756643EA0356703826082010040
B0838234629256N00756646EA0356603825082010040
B0838254629259N00756649EA0356503824083010040
B0838274629261N00756652EA0356403823083010042
B0838294629263N00756656EA0356403822083010040
B0838314629266N00756659EA0356203821083010040
B0838334629268N00756662EA0356103820082010042
B0838354629271N00756665EA0356003819082010042
B0838374629273N00756668EA0355903818082010042
B0838394629276N00756671EA0355803817082010042
B0838414629278N00756674EA0355603816081010042
B0838434629280N00756677EA0355503814081010044
B0838454629282N00756680EA0355303813081010042
B0838474629285N00756683EA0355103811081010040
B0838494629287N00756686EA0355003809081010042
B0838514629289N00756689EA0354803808081010044
B0838534629291N00756692EA0354603806081010042
B0838554629294N00756695EA0354403803081010040
B0838574629296N00756698EA0354203801081010044
B0838594629298N00756701EA0354003799080010044
B0839014629300N00756705EA0353803797080010042
B0839034629303N00756708EA0353603795081010042
B0839054629305N00756711EA0353403793081010044
B0839074629307N00756714EA0353203791081010044
B0839094629310N00756718EA0353103789081010044
B0839114629312N00756721EA0353003787082011044
B0839134629314N00756725EA0352803786082011044
B0839154629317N00756728EA0352703784082011044
B0839174629319N00756731EA0352703783082011044
B0839194629321N00756735EA0352603782082011044
B0839214629324N00756738EA0352503781082011046
B0839234629326N00756742EA0352403780082011044
B0839254629328N00756745EA0352403779082011044
B0839274629331N00756749EA0352303778082011044
B0839294629333N00756752EA0352303778081011044
B0839314629335N00756755EA0352203777081011042
B0839334629338N00756759EA0352203776081011042
B0839354629340N00756762EA0352103776081011042
B0839374629343N00756765EA0352103775081011042
B0839394629345N00756768EA0352003775081011040
B0839414629348N00756772EA0352003774081011040
B0839434629350N00756775EA0351903773081011040
B0839454629353N00756778EA0351903773081011038
B0839474629356N00756781EA0351903772081011038
B0839494629358N00756784EA0351803772081011036
B0839514629361N00756787EA0351803771081011036
B0839534629364N00756789EA0351703771081011034
B0839554629366N00756792EA0351703770080011034
B0839574629369N00756795EA0351703770080011034
B0839594629372N00756798EA0351603769080010034
B0840014629374N00756800EA0351603769080010032
B0840034629377N00756803EA0351503769080010032
B0840054629380N00756805EA0351503768080010032
B0840074629382N00756808EA0351403768079010032
B0840094629385N00756810EA0351403768079010030
B0840114629388N00756812EA0351303768079010028
B0840134629391N00756815EA0351303767079010030
B0840154629393N00756817EA0351203767079010028
B0840174629395N00756820EA0351103764079009036
B0840194629395N00756823EA0351003754079009050
B0840214629395N00756827EA0351003746079009074
B0840234629396N00756832EA0350903740079010084
B0840254629397N00756836EA0350803736079009074
B0840274629399N00756839EA0350803732079009066
B0840294629400N00756842EA0350803729079009058
B0840314629402N00756845EA0350703727079009052
B0840334629404N00756848EA0350703726080009046
B0840354629406N00756850EA0350703725080009042
B0840374629409N00756852EA0350703725080009036
B0840394629411N00756854EA0350703726080009032
B0840414629414N00756856EA0350703727080009028
B0840434629416N00756858EA0350703729080009024
B0840454629419N00756860EA0350703731079009022
B0840474629422N00756861EA0350603732079009020
B0840494629428N00756861EA0350603743079009008
B0840514629432N00756861EA0350603745079009004
B0840534629434N00756863EA0350603746079009004
B0840554629437N00756864EA0350503747079009014
B0840574629440N00756866EA0350503748079009020
B0840594629443N00756867EA0350403749079009020
B0841014629446N00756869EA0350403750079009020
B0841034629448N00756871EA0350303750079009020
B0841054629451N00756872EA0350203750079009022
B0841074629454N00756874EA0350103750078009022
B0841094629456N00756876EA0350003750078009024
B0841114629458N00756878EA0349903749078009026
B0841134629461N00756880EA0349703748078009026
B0841154629463N00756882EA0349503747078009028
B0841174629466N00756884EA0349303746078009028
B0841194629468N00756886EA0349103744078009028
B0841214629471N00756888EA0348903742078009030
B0841234629473N00756890EA0348603740078009030
B0841254629476N00756893EA0348403738078009030
B0841274629478N00756895EA0348103735078009032
B0841294629480N00756897EA0347803732077009034
B0841314629482N00756900EA0347503729077009034
B0841334629485N00756902EA0347203726077009036
B0841354629487N00756905EA0346903724077009036
B0841374629489N00756907EA0346703721079009038
B0841394629491N00756910EA0346403718079009038
B0841414629493N00756913EA0346203715079009040
B0841434629495N00756915EA0345903713079009040
B0841454629497N00756918EA0345703710080009042
B0841474629499N00756921EA0345403707080009042
